{
	"src/autoria.sol": {
		"autoria": {
			"abi": [
				{
					"inputs": [
						{
							"internalType": "address",
							"name": "_arbiter",
							"type": "address"
						},
						{
							"internalType": "address",
							"name": "_seller",
							"type": "address"
						}
					],
					"stateMutability": "nonpayable",
					"type": "constructor"
				},
				{
					"inputs": [
						{
							"internalType": "address",
							"name": "sender",
							"type": "address"
						}
					],
					"name": "AccessDenied",
					"type": "error"
				},
				{
					"inputs": [
						{
							"internalType": "address",
							"name": "sender",
							"type": "address"
						}
					],
					"name": "ApproverNotValid",
					"type": "error"
				},
				{
					"inputs": [],
					"name": "BalanceTooLow",
					"type": "error"
				},
				{
					"inputs": [],
					"name": "DealFailed",
					"type": "error"
				},
				{
					"inputs": [
						{
							"internalType": "address",
							"name": "sender",
							"type": "address"
						}
					],
					"name": "InvalidStatus",
					"type": "error"
				},
				{
					"inputs": [
						{
							"internalType": "address",
							"name": "sender",
							"type": "address"
						}
					],
					"name": "NotEnoughDays",
					"type": "error"
				},
				{
					"inputs": [
						{
							"internalType": "address",
							"name": "sender",
							"type": "address"
						}
					],
					"name": "NotEnouhMoney",
					"type": "error"
				},
				{
					"inputs": [
						{
							"internalType": "address",
							"name": "sender",
							"type": "address"
						}
					],
					"name": "RefundFailed",
					"type": "error"
				},
				{
					"inputs": [
						{
							"internalType": "address",
							"name": "recipient",
							"type": "address"
						}
					],
					"name": "TransferFailed",
					"type": "error"
				},
				{
					"anonymous": false,
					"inputs": [
						{
							"indexed": true,
							"internalType": "address",
							"name": "_arbiter",
							"type": "address"
						},
						{
							"indexed": false,
							"internalType": "bool",
							"name": "approved",
							"type": "bool"
						},
						{
							"indexed": false,
							"internalType": "uint256",
							"name": "time",
							"type": "uint256"
						}
					],
					"name": "Approved",
					"type": "event"
				},
				{
					"anonymous": false,
					"inputs": [
						{
							"indexed": true,
							"internalType": "address",
							"name": "_buyer",
							"type": "address"
						},
						{
							"indexed": false,
							"internalType": "uint256",
							"name": "_amount",
							"type": "uint256"
						},
						{
							"indexed": false,
							"internalType": "uint256",
							"name": "time",
							"type": "uint256"
						}
					],
					"name": "Deposit",
					"type": "event"
				},
				{
					"anonymous": false,
					"inputs": [
						{
							"indexed": true,
							"internalType": "address",
							"name": "_buyer",
							"type": "address"
						},
						{
							"indexed": false,
							"internalType": "address",
							"name": "actor",
							"type": "address"
						},
						{
							"indexed": false,
							"internalType": "uint256",
							"name": "_amount",
							"type": "uint256"
						},
						{
							"indexed": false,
							"internalType": "uint256",
							"name": "time",
							"type": "uint256"
						}
					],
					"name": "canceled",
					"type": "event"
				},
				{
					"inputs": [
						{
							"internalType": "bool",
							"name": "_status",
							"type": "bool"
						}
					],
					"name": "approved",
					"outputs": [],
					"stateMutability": "nonpayable",
					"type": "function"
				},
				{
					"inputs": [],
					"name": "arbiter",
					"outputs": [
						{
							"internalType": "address",
							"name": "",
							"type": "address"
						}
					],
					"stateMutability": "view",
					"type": "function"
				},
				{
					"inputs": [],
					"name": "buyer",
					"outputs": [
						{
							"internalType": "address",
							"name": "",
							"type": "address"
						}
					],
					"stateMutability": "view",
					"type": "function"
				},
				{
					"inputs": [],
					"name": "cancel",
					"outputs": [],
					"stateMutability": "nonpayable",
					"type": "function"
				},
				{
					"inputs": [],
					"name": "carPrice",
					"outputs": [
						{
							"internalType": "uint256",
							"name": "",
							"type": "uint256"
						}
					],
					"stateMutability": "view",
					"type": "function"
				},
				{
					"inputs": [],
					"name": "deadLine",
					"outputs": [
						{
							"internalType": "uint256",
							"name": "",
							"type": "uint256"
						}
					],
					"stateMutability": "view",
					"type": "function"
				},
				{
					"inputs": [],
					"name": "getBalance",
					"outputs": [
						{
							"internalType": "uint256",
							"name": "",
							"type": "uint256"
						}
					],
					"stateMutability": "view",
					"type": "function"
				},
				{
					"inputs": [],
					"name": "payforCAR",
					"outputs": [],
					"stateMutability": "payable",
					"type": "function"
				},
				{
					"inputs": [],
					"name": "seller",
					"outputs": [
						{
							"internalType": "address",
							"name": "",
							"type": "address"
						}
					],
					"stateMutability": "view",
					"type": "function"
				},
				{
					"inputs": [],
					"name": "statusData",
					"outputs": [
						{
							"internalType": "enum autoria.StatusData",
							"name": "",
							"type": "uint8"
						}
					],
					"stateMutability": "view",
					"type": "function"
				}
			],
			"devdoc": {
				"kind": "dev",
				"methods": {},
				"version": 1
			},
			"evm": {
				"assembly": "    /* \"src/autoria.sol\":59:4458  contract autoria {... */\n  mstore(0x40, 0x80)\n    /* \"src/autoria.sol\":451:462  20000 ether */\n  0x043c33c1937564800000\n    /* \"src/autoria.sol\":425:462  uint256 public carPrice = 20000 ether */\n  0x00\n  sstore\n    /* \"src/autoria.sol\":1050:1196  constructor(address _arbiter, address _seller) {... */\n  callvalue\n  dup1\n  iszero\n  tag_1\n  jumpi\n  revert(0x00, 0x00)\ntag_1:\n  pop\n  mload(0x40)\n  sub(codesize, bytecodeSize)\n  dup1\n  bytecodeSize\n  dup4\n  codecopy\n  dup2\n  dup2\n  add\n  0x40\n  mstore\n  dup2\n  add\n  swap1\n  tag_2\n  swap2\n  swap1\n  tag_3\n  jump\t// in\ntag_2:\n    /* \"src/autoria.sol\":1120:1135  StatusData.Open */\n  0x00\n    /* \"src/autoria.sol\":1107:1117  statusData */\n  0x03\n  0x14\n    /* \"src/autoria.sol\":1107:1135  statusData = StatusData.Open */\n  0x0100\n  exp\n  dup2\n  sload\n  dup2\n  0xff\n  mul\n  not\n  and\n  swap1\n  dup4\n  0x03\n  dup2\n  gt\n  iszero\n  tag_6\n  jumpi\n  tag_7\n  tag_8\n  jump\t// in\ntag_7:\ntag_6:\n  mul\n  or\n  swap1\n  sstore\n  pop\n    /* \"src/autoria.sol\":1154:1161  _seller */\n  dup1\n    /* \"src/autoria.sol\":1145:1151  seller */\n  0x01\n  0x00\n    /* \"src/autoria.sol\":1145:1161  seller = _seller */\n  0x0100\n  exp\n  dup2\n  sload\n  dup2\n  0xffffffffffffffffffffffffffffffffffffffff\n  mul\n  not\n  and\n  swap1\n  dup4\n  0xffffffffffffffffffffffffffffffffffffffff\n  and\n  mul\n  or\n  swap1\n  sstore\n  pop\n    /* \"src/autoria.sol\":1181:1189  _arbiter */\n  dup2\n    /* \"src/autoria.sol\":1171:1178  arbiter */\n  0x03\n  0x00\n    /* \"src/autoria.sol\":1171:1189  arbiter = _arbiter */\n  0x0100\n  exp\n  dup2\n  sload\n  dup2\n  0xffffffffffffffffffffffffffffffffffffffff\n  mul\n  not\n  and\n  swap1\n  dup4\n  0xffffffffffffffffffffffffffffffffffffffff\n  and\n  mul\n  or\n  swap1\n  sstore\n  pop\n    /* \"src/autoria.sol\":1050:1196  constructor(address _arbiter, address _seller) {... */\n  pop\n  pop\n    /* \"src/autoria.sol\":59:4458  contract autoria {... */\n  jump(tag_9)\n    /* \"#utility.yul\":88:205   */\ntag_11:\n    /* \"#utility.yul\":197:198   */\n  0x00\n    /* \"#utility.yul\":194:195   */\n  0x00\n    /* \"#utility.yul\":187:199   */\n  revert\n    /* \"#utility.yul\":334:460   */\ntag_13:\n    /* \"#utility.yul\":371:378   */\n  0x00\n    /* \"#utility.yul\":411:453   */\n  0xffffffffffffffffffffffffffffffffffffffff\n    /* \"#utility.yul\":404:409   */\n  dup3\n    /* \"#utility.yul\":400:454   */\n  and\n    /* \"#utility.yul\":389:454   */\n  swap1\n  pop\n    /* \"#utility.yul\":334:460   */\n  swap2\n  swap1\n  pop\n  jump\t// out\n    /* \"#utility.yul\":466:562   */\ntag_14:\n    /* \"#utility.yul\":503:510   */\n  0x00\n    /* \"#utility.yul\":532:556   */\n  tag_23\n    /* \"#utility.yul\":550:555   */\n  dup3\n    /* \"#utility.yul\":532:556   */\n  tag_13\n  jump\t// in\ntag_23:\n    /* \"#utility.yul\":521:556   */\n  swap1\n  pop\n    /* \"#utility.yul\":466:562   */\n  swap2\n  swap1\n  pop\n  jump\t// out\n    /* \"#utility.yul\":568:690   */\ntag_15:\n    /* \"#utility.yul\":641:665   */\n  tag_25\n    /* \"#utility.yul\":659:664   */\n  dup2\n    /* \"#utility.yul\":641:665   */\n  tag_14\n  jump\t// in\ntag_25:\n    /* \"#utility.yul\":634:639   */\n  dup2\n    /* \"#utility.yul\":631:666   */\n  eq\n    /* \"#utility.yul\":621:684   */\n  tag_26\n  jumpi\n    /* \"#utility.yul\":680:681   */\n  0x00\n    /* \"#utility.yul\":677:678   */\n  0x00\n    /* \"#utility.yul\":670:682   */\n  revert\n    /* \"#utility.yul\":621:684   */\ntag_26:\n    /* \"#utility.yul\":568:690   */\n  pop\n  jump\t// out\n    /* \"#utility.yul\":696:839   */\ntag_16:\n    /* \"#utility.yul\":753:758   */\n  0x00\n    /* \"#utility.yul\":784:790   */\n  dup2\n    /* \"#utility.yul\":778:791   */\n  mload\n    /* \"#utility.yul\":769:791   */\n  swap1\n  pop\n    /* \"#utility.yul\":800:833   */\n  tag_28\n    /* \"#utility.yul\":827:832   */\n  dup2\n    /* \"#utility.yul\":800:833   */\n  tag_15\n  jump\t// in\ntag_28:\n    /* \"#utility.yul\":696:839   */\n  swap3\n  swap2\n  pop\n  pop\n  jump\t// out\n    /* \"#utility.yul\":845:1352   */\ntag_3:\n    /* \"#utility.yul\":924:930   */\n  0x00\n    /* \"#utility.yul\":932:938   */\n  0x00\n    /* \"#utility.yul\":981:983   */\n  0x40\n    /* \"#utility.yul\":969:978   */\n  dup4\n    /* \"#utility.yul\":960:967   */\n  dup6\n    /* \"#utility.yul\":956:979   */\n  sub\n    /* \"#utility.yul\":952:984   */\n  slt\n    /* \"#utility.yul\":949:1068   */\n  iszero\n  tag_30\n  jumpi\n    /* \"#utility.yul\":987:1066   */\n  tag_31\n  tag_11\n  jump\t// in\ntag_31:\n    /* \"#utility.yul\":949:1068   */\ntag_30:\n    /* \"#utility.yul\":1107:1108   */\n  0x00\n    /* \"#utility.yul\":1132:1196   */\n  tag_32\n    /* \"#utility.yul\":1188:1195   */\n  dup6\n    /* \"#utility.yul\":1179:1185   */\n  dup3\n    /* \"#utility.yul\":1168:1177   */\n  dup7\n    /* \"#utility.yul\":1164:1186   */\n  add\n    /* \"#utility.yul\":1132:1196   */\n  tag_16\n  jump\t// in\ntag_32:\n    /* \"#utility.yul\":1122:1196   */\n  swap3\n  pop\n    /* \"#utility.yul\":1078:1206   */\n  pop\n    /* \"#utility.yul\":1245:1247   */\n  0x20\n    /* \"#utility.yul\":1271:1335   */\n  tag_33\n    /* \"#utility.yul\":1327:1334   */\n  dup6\n    /* \"#utility.yul\":1318:1324   */\n  dup3\n    /* \"#utility.yul\":1307:1316   */\n  dup7\n    /* \"#utility.yul\":1303:1325   */\n  add\n    /* \"#utility.yul\":1271:1335   */\n  tag_16\n  jump\t// in\ntag_33:\n    /* \"#utility.yul\":1261:1335   */\n  swap2\n  pop\n    /* \"#utility.yul\":1216:1345   */\n  pop\n    /* \"#utility.yul\":845:1352   */\n  swap3\n  pop\n  swap3\n  swap1\n  pop\n  jump\t// out\n    /* \"#utility.yul\":1358:1538   */\ntag_8:\n    /* \"#utility.yul\":1406:1483   */\n  0x4e487b7100000000000000000000000000000000000000000000000000000000\n    /* \"#utility.yul\":1403:1404   */\n  0x00\n    /* \"#utility.yul\":1396:1484   */\n  mstore\n    /* \"#utility.yul\":1503:1507   */\n  0x21\n    /* \"#utility.yul\":1500:1501   */\n  0x04\n    /* \"#utility.yul\":1493:1508   */\n  mstore\n    /* \"#utility.yul\":1527:1531   */\n  0x24\n    /* \"#utility.yul\":1524:1525   */\n  0x00\n    /* \"#utility.yul\":1517:1532   */\n  revert\n    /* \"src/autoria.sol\":59:4458  contract autoria {... */\ntag_9:\n  dataSize(sub_0)\n  dup1\n  dataOffset(sub_0)\n  0x00\n  codecopy\n  0x00\n  return\nstop\n\nsub_0: assembly {\n        /* \"src/autoria.sol\":59:4458  contract autoria {... */\n      mstore(0x40, 0x80)\n      jumpi(tag_1, lt(calldatasize, 0x04))\n      shr(0xe0, calldataload(0x00))\n      dup1\n      0xb7f5ddaf\n      gt\n      tag_12\n      jumpi\n      dup1\n      0xb7f5ddaf\n      eq\n      tag_7\n      jumpi\n      dup1\n      0xbef3a083\n      eq\n      tag_8\n      jumpi\n      dup1\n      0xe6b6dd6f\n      eq\n      tag_9\n      jumpi\n      dup1\n      0xea8a1af0\n      eq\n      tag_10\n      jumpi\n      dup1\n      0xfe25e00a\n      eq\n      tag_11\n      jumpi\n      jump(tag_1)\n    tag_12:\n      dup1\n      0x08551a53\n      eq\n      tag_2\n      jumpi\n      dup1\n      0x12065fe0\n      eq\n      tag_3\n      jumpi\n      dup1\n      0x7150d8ae\n      eq\n      tag_4\n      jumpi\n      dup1\n      0x8cedfddd\n      eq\n      tag_5\n      jumpi\n      dup1\n      0x95285deb\n      eq\n      tag_6\n      jumpi\n    tag_1:\n      revert(0x00, 0x00)\n        /* \"src/autoria.sol\":468:489  address public seller */\n    tag_2:\n      callvalue\n      dup1\n      iszero\n      tag_13\n      jumpi\n      revert(0x00, 0x00)\n    tag_13:\n      pop\n      tag_14\n      tag_15\n      jump\t// in\n    tag_14:\n      mload(0x40)\n      tag_16\n      swap2\n      swap1\n      tag_17\n      jump\t// in\n    tag_16:\n      mload(0x40)\n      dup1\n      swap2\n      sub\n      swap1\n      return\n        /* \"src/autoria.sol\":1697:1829  function getBalance() public view returns (uint256) {... */\n    tag_3:\n      callvalue\n      dup1\n      iszero\n      tag_18\n      jumpi\n      revert(0x00, 0x00)\n    tag_18:\n      pop\n      tag_19\n      tag_20\n      jump\t// in\n    tag_19:\n      mload(0x40)\n      tag_21\n      swap2\n      swap1\n      tag_22\n      jump\t// in\n    tag_21:\n      mload(0x40)\n      dup1\n      swap2\n      sub\n      swap1\n      return\n        /* \"src/autoria.sol\":495:515  address public buyer */\n    tag_4:\n      callvalue\n      dup1\n      iszero\n      tag_23\n      jumpi\n      revert(0x00, 0x00)\n    tag_23:\n      pop\n      tag_24\n      tag_25\n      jump\t// in\n    tag_24:\n      mload(0x40)\n      tag_26\n      swap2\n      swap1\n      tag_17\n      jump\t// in\n    tag_26:\n      mload(0x40)\n      dup1\n      swap2\n      sub\n      swap1\n      return\n        /* \"src/autoria.sol\":1889:3505  function approved(bool _status) public {... */\n    tag_5:\n      callvalue\n      dup1\n      iszero\n      tag_27\n      jumpi\n      revert(0x00, 0x00)\n    tag_27:\n      pop\n      tag_28\n      0x04\n      dup1\n      calldatasize\n      sub\n      dup2\n      add\n      swap1\n      tag_29\n      swap2\n      swap1\n      tag_30\n      jump\t// in\n    tag_29:\n      tag_31\n      jump\t// in\n    tag_28:\n      stop\n        /* \"src/autoria.sol\":425:462  uint256 public carPrice = 20000 ether */\n    tag_6:\n      callvalue\n      dup1\n      iszero\n      tag_32\n      jumpi\n      revert(0x00, 0x00)\n    tag_32:\n      pop\n      tag_33\n      tag_34\n      jump\t// in\n    tag_33:\n      mload(0x40)\n      tag_35\n      swap2\n      swap1\n      tag_22\n      jump\t// in\n    tag_35:\n      mload(0x40)\n      dup1\n      swap2\n      sub\n      swap1\n      return\n        /* \"src/autoria.sol\":1238:1656  function payforCAR() external payable {... */\n    tag_7:\n      tag_36\n      tag_37\n      jump\t// in\n    tag_36:\n      stop\n        /* \"src/autoria.sol\":1020:1043  uint256 public deadLine */\n    tag_8:\n      callvalue\n      dup1\n      iszero\n      tag_38\n      jumpi\n      revert(0x00, 0x00)\n    tag_38:\n      pop\n      tag_39\n      tag_40\n      jump\t// in\n    tag_39:\n      mload(0x40)\n      tag_41\n      swap2\n      swap1\n      tag_22\n      jump\t// in\n    tag_41:\n      mload(0x40)\n      dup1\n      swap2\n      sub\n      swap1\n      return\n        /* \"src/autoria.sol\":644:672  StatusData public statusData */\n    tag_9:\n      callvalue\n      dup1\n      iszero\n      tag_42\n      jumpi\n      revert(0x00, 0x00)\n    tag_42:\n      pop\n      tag_43\n      tag_44\n      jump\t// in\n    tag_43:\n      mload(0x40)\n      tag_45\n      swap2\n      swap1\n      tag_46\n      jump\t// in\n    tag_45:\n      mload(0x40)\n      dup1\n      swap2\n      sub\n      swap1\n      return\n        /* \"src/autoria.sol\":3597:4456  function cancel() external {... */\n    tag_10:\n      callvalue\n      dup1\n      iszero\n      tag_47\n      jumpi\n      revert(0x00, 0x00)\n    tag_47:\n      pop\n      tag_48\n      tag_49\n      jump\t// in\n    tag_48:\n      stop\n        /* \"src/autoria.sol\":521:543  address public arbiter */\n    tag_11:\n      callvalue\n      dup1\n      iszero\n      tag_50\n      jumpi\n      revert(0x00, 0x00)\n    tag_50:\n      pop\n      tag_51\n      tag_52\n      jump\t// in\n    tag_51:\n      mload(0x40)\n      tag_53\n      swap2\n      swap1\n      tag_17\n      jump\t// in\n    tag_53:\n      mload(0x40)\n      dup1\n      swap2\n      sub\n      swap1\n      return\n        /* \"src/autoria.sol\":468:489  address public seller */\n    tag_15:\n      0x01\n      0x00\n      swap1\n      sload\n      swap1\n      0x0100\n      exp\n      swap1\n      div\n      0xffffffffffffffffffffffffffffffffffffffff\n      and\n      dup2\n      jump\t// out\n        /* \"src/autoria.sol\":1697:1829  function getBalance() public view returns (uint256) {... */\n    tag_20:\n        /* \"src/autoria.sol\":1740:1747  uint256 */\n      0x00\n        /* \"src/autoria.sol\":1759:1774  uint256 balance */\n      0x00\n        /* \"src/autoria.sol\":1777:1798  address(this).balance */\n      selfbalance\n        /* \"src/autoria.sol\":1759:1798  uint256 balance = address(this).balance */\n      swap1\n      pop\n        /* \"src/autoria.sol\":1815:1822  balance */\n      dup1\n        /* \"src/autoria.sol\":1808:1822  return balance */\n      swap2\n      pop\n      pop\n        /* \"src/autoria.sol\":1697:1829  function getBalance() public view returns (uint256) {... */\n      swap1\n      jump\t// out\n        /* \"src/autoria.sol\":495:515  address public buyer */\n    tag_25:\n      0x02\n      0x00\n      swap1\n      sload\n      swap1\n      0x0100\n      exp\n      swap1\n      div\n      0xffffffffffffffffffffffffffffffffffffffff\n      and\n      dup2\n      jump\t// out\n        /* \"src/autoria.sol\":1889:3505  function approved(bool _status) public {... */\n    tag_31:\n        /* \"src/autoria.sol\":1956:1973  StatusData.Locked */\n      0x01\n        /* \"src/autoria.sol\":1942:1973  statusData != StatusData.Locked */\n      0x03\n      dup2\n      gt\n      iszero\n      tag_56\n      jumpi\n      tag_57\n      tag_58\n      jump\t// in\n    tag_57:\n    tag_56:\n        /* \"src/autoria.sol\":1942:1952  statusData */\n      0x03\n      0x14\n      swap1\n      sload\n      swap1\n      0x0100\n      exp\n      swap1\n      div\n      0xff\n      and\n        /* \"src/autoria.sol\":1942:1973  statusData != StatusData.Locked */\n      0x03\n      dup2\n      gt\n      iszero\n      tag_59\n      jumpi\n      tag_60\n      tag_58\n      jump\t// in\n    tag_60:\n    tag_59:\n      eq\n        /* \"src/autoria.sol\":1938:2032  if (statusData != StatusData.Locked) {... */\n      tag_61\n      jumpi\n        /* \"src/autoria.sol\":2010:2020  msg.sender */\n      caller\n        /* \"src/autoria.sol\":1996:2021  InvalidStatus(msg.sender) */\n      mload(0x40)\n      0x864d3a5200000000000000000000000000000000000000000000000000000000\n      dup2\n      mstore\n      0x04\n      add\n      tag_62\n      swap2\n      swap1\n      tag_17\n      jump\t// in\n    tag_62:\n      mload(0x40)\n      dup1\n      swap2\n      sub\n      swap1\n      revert\n        /* \"src/autoria.sol\":1938:2032  if (statusData != StatusData.Locked) {... */\n    tag_61:\n        /* \"src/autoria.sol\":2060:2067  arbiter */\n      0x03\n      0x00\n      swap1\n      sload\n      swap1\n      0x0100\n      exp\n      swap1\n      div\n      0xffffffffffffffffffffffffffffffffffffffff\n      and\n        /* \"src/autoria.sol\":2046:2067  msg.sender != arbiter */\n      0xffffffffffffffffffffffffffffffffffffffff\n      and\n        /* \"src/autoria.sol\":2046:2056  msg.sender */\n      caller\n        /* \"src/autoria.sol\":2046:2067  msg.sender != arbiter */\n      0xffffffffffffffffffffffffffffffffffffffff\n      and\n      eq\n        /* \"src/autoria.sol\":2042:2159  if (msg.sender != arbiter) {... */\n      tag_63\n      jumpi\n        /* \"src/autoria.sol\":2137:2147  msg.sender */\n      caller\n        /* \"src/autoria.sol\":2120:2148  ApproverNotValid(msg.sender) */\n      mload(0x40)\n      0x5a9afbc400000000000000000000000000000000000000000000000000000000\n      dup2\n      mstore\n      0x04\n      add\n      tag_64\n      swap2\n      swap1\n      tag_17\n      jump\t// in\n    tag_64:\n      mload(0x40)\n      dup1\n      swap2\n      sub\n      swap1\n      revert\n        /* \"src/autoria.sol\":2042:2159  if (msg.sender != arbiter) {... */\n    tag_63:\n        /* \"src/autoria.sol\":2242:2250  carPrice */\n      sload(0x00)\n        /* \"src/autoria.sol\":2218:2239  address(this).balance */\n      selfbalance\n        /* \"src/autoria.sol\":2218:2250  address(this).balance < carPrice */\n      lt\n        /* \"src/autoria.sol\":2214:2299  if (address(this).balance < carPrice) {... */\n      iszero\n      tag_65\n      jumpi\n        /* \"src/autoria.sol\":2273:2288  BalanceTooLow() */\n      mload(0x40)\n      0xa328167200000000000000000000000000000000000000000000000000000000\n      dup2\n      mstore\n      0x04\n      add\n      mload(0x40)\n      dup1\n      swap2\n      sub\n      swap1\n      revert\n        /* \"src/autoria.sol\":2214:2299  if (address(this).balance < carPrice) {... */\n    tag_65:\n        /* \"src/autoria.sol\":2324:2328  true */\n      0x01\n        /* \"src/autoria.sol\":2313:2328  _status == true */\n      iszero\n      iszero\n        /* \"src/autoria.sol\":2313:2320  _status */\n      dup2\n        /* \"src/autoria.sol\":2313:2328  _status == true */\n      iszero\n      iszero\n      sub\n        /* \"src/autoria.sol\":2309:3499  if (_status == true) {... */\n      tag_66\n      jumpi\n        /* \"src/autoria.sol\":2344:2371  uint256 balanceSellerBefore */\n      0x00\n        /* \"src/autoria.sol\":2382:2388  seller */\n      0x01\n      0x00\n      swap1\n      sload\n      swap1\n      0x0100\n      exp\n      swap1\n      div\n      0xffffffffffffffffffffffffffffffffffffffff\n      and\n        /* \"src/autoria.sol\":2374:2397  address(seller).balance */\n      0xffffffffffffffffffffffffffffffffffffffff\n      and\n      balance\n        /* \"src/autoria.sol\":2344:2397  uint256 balanceSellerBefore = address(seller).balance */\n      swap1\n      pop\n        /* \"src/autoria.sol\":2425:2444  StatusData.Finished */\n      0x02\n        /* \"src/autoria.sol\":2412:2422  statusData */\n      0x03\n      0x14\n        /* \"src/autoria.sol\":2412:2444  statusData = StatusData.Finished */\n      0x0100\n      exp\n      dup2\n      sload\n      dup2\n      0xff\n      mul\n      not\n      and\n      swap1\n      dup4\n      0x03\n      dup2\n      gt\n      iszero\n      tag_67\n      jumpi\n      tag_68\n      tag_58\n      jump\t// in\n    tag_68:\n    tag_67:\n      mul\n      or\n      swap1\n      sstore\n      pop\n        /* \"src/autoria.sol\":2472:2479  arbiter */\n      0x03\n      0x00\n      swap1\n      sload\n      swap1\n      0x0100\n      exp\n      swap1\n      div\n      0xffffffffffffffffffffffffffffffffffffffff\n      and\n        /* \"src/autoria.sol\":2463:2503  Approved(arbiter, true, block.timestamp) */\n      0xffffffffffffffffffffffffffffffffffffffff\n      and\n      0xd4424b1aebf75a24f5aa1f790a15b8381fc4d14599c53b7d89a2a0acd52dd1cd\n        /* \"src/autoria.sol\":2481:2485  true */\n      0x01\n        /* \"src/autoria.sol\":2487:2502  block.timestamp */\n      timestamp\n        /* \"src/autoria.sol\":2463:2503  Approved(arbiter, true, block.timestamp) */\n      mload(0x40)\n      tag_69\n      swap3\n      swap2\n      swap1\n      tag_70\n      jump\t// in\n    tag_69:\n      mload(0x40)\n      dup1\n      swap2\n      sub\n      swap1\n      log2\n        /* \"src/autoria.sol\":2519:2528  bool send */\n      0x00\n        /* \"src/autoria.sol\":2541:2547  seller */\n      0x01\n      0x00\n      swap1\n      sload\n      swap1\n      0x0100\n      exp\n      swap1\n      div\n      0xffffffffffffffffffffffffffffffffffffffff\n      and\n        /* \"src/autoria.sol\":2533:2553  address(seller).call */\n      0xffffffffffffffffffffffffffffffffffffffff\n      and\n        /* \"src/autoria.sol\":2561:2569  carPrice */\n      sload(0x00)\n        /* \"src/autoria.sol\":2533:2574  address(seller).call{value: carPrice}(\"\") */\n      mload(0x40)\n      tag_71\n      swap1\n      tag_72\n      jump\t// in\n    tag_71:\n      0x00\n      mload(0x40)\n      dup1\n      dup4\n      sub\n      dup2\n      dup6\n      dup8\n      gas\n      call\n      swap3\n      pop\n      pop\n      pop\n      returndatasize\n      dup1\n      0x00\n      dup2\n      eq\n      tag_75\n      jumpi\n      mload(0x40)\n      swap2\n      pop\n      and(add(returndatasize, 0x3f), not(0x1f))\n      dup3\n      add\n      0x40\n      mstore\n      returndatasize\n      dup3\n      mstore\n      returndatasize\n      0x00\n      0x20\n      dup5\n      add\n      returndatacopy\n      jump(tag_74)\n    tag_75:\n      0x60\n      swap2\n      pop\n    tag_74:\n      pop\n        /* \"src/autoria.sol\":2518:2574  (bool send,) = address(seller).call{value: carPrice}(\"\") */\n      pop\n      swap1\n      pop\n        /* \"src/autoria.sol\":2624:2630  seller */\n      0x01\n      0x00\n      swap1\n      sload\n      swap1\n      0x0100\n      exp\n      swap1\n      div\n      0xffffffffffffffffffffffffffffffffffffffff\n      and\n        /* \"src/autoria.sol\":2616:2639  address(seller).balance */\n      0xffffffffffffffffffffffffffffffffffffffff\n      and\n      balance\n        /* \"src/autoria.sol\":2593:2612  balanceSellerBefore */\n      dup3\n        /* \"src/autoria.sol\":2593:2639  balanceSellerBefore >= address(seller).balance */\n      lt\n        /* \"src/autoria.sol\":2589:2703  if (balanceSellerBefore >= address(seller).balance) {... */\n      tag_76\n      jumpi\n        /* \"src/autoria.sol\":2681:2687  seller */\n      0x01\n      0x00\n      swap1\n      sload\n      swap1\n      0x0100\n      exp\n      swap1\n      div\n      0xffffffffffffffffffffffffffffffffffffffff\n      and\n        /* \"src/autoria.sol\":2666:2688  TransferFailed(seller) */\n      mload(0x40)\n      0x39f1c8d900000000000000000000000000000000000000000000000000000000\n      dup2\n      mstore\n      0x04\n      add\n      tag_77\n      swap2\n      swap1\n      tag_17\n      jump\t// in\n    tag_77:\n      mload(0x40)\n      dup1\n      swap2\n      sub\n      swap1\n      revert\n        /* \"src/autoria.sol\":2589:2703  if (balanceSellerBefore >= address(seller).balance) {... */\n    tag_76:\n        /* \"src/autoria.sol\":2792:2796  true */\n      0x01\n        /* \"src/autoria.sol\":2784:2796  send != true */\n      iszero\n      iszero\n        /* \"src/autoria.sol\":2784:2788  send */\n      dup2\n        /* \"src/autoria.sol\":2784:2796  send != true */\n      iszero\n      iszero\n      eq\n        /* \"src/autoria.sol\":2780:2894  if (send != true) {... */\n      tag_78\n      jumpi\n        /* \"src/autoria.sol\":2872:2878  seller */\n      0x01\n      0x00\n      swap1\n      sload\n      swap1\n      0x0100\n      exp\n      swap1\n      div\n      0xffffffffffffffffffffffffffffffffffffffff\n      and\n        /* \"src/autoria.sol\":2857:2879  TransferFailed(seller) */\n      mload(0x40)\n      0x39f1c8d900000000000000000000000000000000000000000000000000000000\n      dup2\n      mstore\n      0x04\n      add\n      tag_79\n      swap2\n      swap1\n      tag_17\n      jump\t// in\n    tag_79:\n      mload(0x40)\n      dup1\n      swap2\n      sub\n      swap1\n      revert\n        /* \"src/autoria.sol\":2780:2894  if (send != true) {... */\n    tag_78:\n        /* \"src/autoria.sol\":2330:2904  {... */\n      pop\n      pop\n        /* \"src/autoria.sol\":2309:3499  if (_status == true) {... */\n      jump(tag_80)\n    tag_66:\n        /* \"src/autoria.sol\":2937:2957  StatusData.Cancelled */\n      0x03\n        /* \"src/autoria.sol\":2924:2934  statusData */\n      dup1\n      0x14\n        /* \"src/autoria.sol\":2924:2957  statusData = StatusData.Cancelled */\n      0x0100\n      exp\n      dup2\n      sload\n      dup2\n      0xff\n      mul\n      not\n      and\n      swap1\n      dup4\n      0x03\n      dup2\n      gt\n      iszero\n      tag_81\n      jumpi\n      tag_82\n      tag_58\n      jump\t// in\n    tag_82:\n    tag_81:\n      mul\n      or\n      swap1\n      sstore\n      pop\n        /* \"src/autoria.sol\":2985:2990  buyer */\n      0x02\n      0x00\n      swap1\n      sload\n      swap1\n      0x0100\n      exp\n      swap1\n      div\n      0xffffffffffffffffffffffffffffffffffffffff\n      and\n        /* \"src/autoria.sol\":2976:3030  canceled(buyer, msg.sender, carPrice, block.timestamp) */\n      0xffffffffffffffffffffffffffffffffffffffff\n      and\n      0x40643115cc62c73af4ad42f60c25d6aa111fd7921c93e97b02f6ec4687a27672\n        /* \"src/autoria.sol\":2992:3002  msg.sender */\n      caller\n        /* \"src/autoria.sol\":3004:3012  carPrice */\n      sload(0x00)\n        /* \"src/autoria.sol\":3014:3029  block.timestamp */\n      timestamp\n        /* \"src/autoria.sol\":2976:3030  canceled(buyer, msg.sender, carPrice, block.timestamp) */\n      mload(0x40)\n      tag_83\n      swap4\n      swap3\n      swap2\n      swap1\n      tag_84\n      jump\t// in\n    tag_83:\n      mload(0x40)\n      dup1\n      swap2\n      sub\n      swap1\n      log2\n        /* \"src/autoria.sol\":3045:3071  uint256 balanceBuyerBefore */\n      0x00\n        /* \"src/autoria.sol\":3082:3087  buyer */\n      0x02\n      0x00\n      swap1\n      sload\n      swap1\n      0x0100\n      exp\n      swap1\n      div\n      0xffffffffffffffffffffffffffffffffffffffff\n      and\n        /* \"src/autoria.sol\":3074:3096  address(buyer).balance */\n      0xffffffffffffffffffffffffffffffffffffffff\n      and\n      balance\n        /* \"src/autoria.sol\":3045:3096  uint256 balanceBuyerBefore = address(buyer).balance */\n      swap1\n      pop\n        /* \"src/autoria.sol\":3111:3120  bool send */\n      0x00\n        /* \"src/autoria.sol\":3133:3138  buyer */\n      0x02\n      0x00\n      swap1\n      sload\n      swap1\n      0x0100\n      exp\n      swap1\n      div\n      0xffffffffffffffffffffffffffffffffffffffff\n      and\n        /* \"src/autoria.sol\":3125:3144  address(buyer).call */\n      0xffffffffffffffffffffffffffffffffffffffff\n      and\n        /* \"src/autoria.sol\":3152:3160  carPrice */\n      sload(0x00)\n        /* \"src/autoria.sol\":3125:3165  address(buyer).call{value: carPrice}(\"\") */\n      mload(0x40)\n      tag_85\n      swap1\n      tag_72\n      jump\t// in\n    tag_85:\n      0x00\n      mload(0x40)\n      dup1\n      dup4\n      sub\n      dup2\n      dup6\n      dup8\n      gas\n      call\n      swap3\n      pop\n      pop\n      pop\n      returndatasize\n      dup1\n      0x00\n      dup2\n      eq\n      tag_88\n      jumpi\n      mload(0x40)\n      swap2\n      pop\n      and(add(returndatasize, 0x3f), not(0x1f))\n      dup3\n      add\n      0x40\n      mstore\n      returndatasize\n      dup3\n      mstore\n      returndatasize\n      0x00\n      0x20\n      dup5\n      add\n      returndatacopy\n      jump(tag_87)\n    tag_88:\n      0x60\n      swap2\n      pop\n    tag_87:\n      pop\n        /* \"src/autoria.sol\":3110:3165  (bool send,) = address(buyer).call{value: carPrice}(\"\") */\n      pop\n      swap1\n      pop\n        /* \"src/autoria.sol\":3286:3291  buyer */\n      0x02\n      0x00\n      swap1\n      sload\n      swap1\n      0x0100\n      exp\n      swap1\n      div\n      0xffffffffffffffffffffffffffffffffffffffff\n      and\n        /* \"src/autoria.sol\":3278:3300  address(buyer).balance */\n      0xffffffffffffffffffffffffffffffffffffffff\n      and\n      balance\n        /* \"src/autoria.sol\":3256:3274  balanceBuyerBefore */\n      dup3\n        /* \"src/autoria.sol\":3256:3300  balanceBuyerBefore >= address(buyer).balance */\n      lt\n        /* \"src/autoria.sol\":3252:3363  if (balanceBuyerBefore >= address(buyer).balance) {... */\n      tag_89\n      jumpi\n        /* \"src/autoria.sol\":3342:3347  buyer */\n      0x02\n      0x00\n      swap1\n      sload\n      swap1\n      0x0100\n      exp\n      swap1\n      div\n      0xffffffffffffffffffffffffffffffffffffffff\n      and\n        /* \"src/autoria.sol\":3327:3348  TransferFailed(buyer) */\n      mload(0x40)\n      0x39f1c8d900000000000000000000000000000000000000000000000000000000\n      dup2\n      mstore\n      0x04\n      add\n      tag_90\n      swap2\n      swap1\n      tag_17\n      jump\t// in\n    tag_90:\n      mload(0x40)\n      dup1\n      swap2\n      sub\n      swap1\n      revert\n        /* \"src/autoria.sol\":3252:3363  if (balanceBuyerBefore >= address(buyer).balance) {... */\n    tag_89:\n        /* \"src/autoria.sol\":3388:3392  true */\n      0x01\n        /* \"src/autoria.sol\":3380:3392  send != true */\n      iszero\n      iszero\n        /* \"src/autoria.sol\":3380:3384  send */\n      dup2\n        /* \"src/autoria.sol\":3380:3392  send != true */\n      iszero\n      iszero\n      eq\n        /* \"src/autoria.sol\":3376:3489  if (send != true) {... */\n      tag_91\n      jumpi\n        /* \"src/autoria.sol\":3468:3473  buyer */\n      0x02\n      0x00\n      swap1\n      sload\n      swap1\n      0x0100\n      exp\n      swap1\n      div\n      0xffffffffffffffffffffffffffffffffffffffff\n      and\n        /* \"src/autoria.sol\":3453:3474  TransferFailed(buyer) */\n      mload(0x40)\n      0x39f1c8d900000000000000000000000000000000000000000000000000000000\n      dup2\n      mstore\n      0x04\n      add\n      tag_92\n      swap2\n      swap1\n      tag_17\n      jump\t// in\n    tag_92:\n      mload(0x40)\n      dup1\n      swap2\n      sub\n      swap1\n      revert\n        /* \"src/autoria.sol\":3376:3489  if (send != true) {... */\n    tag_91:\n        /* \"src/autoria.sol\":2910:3499  {... */\n      pop\n      pop\n        /* \"src/autoria.sol\":2309:3499  if (_status == true) {... */\n    tag_80:\n        /* \"src/autoria.sol\":1889:3505  function approved(bool _status) public {... */\n      pop\n      jump\t// out\n        /* \"src/autoria.sol\":425:462  uint256 public carPrice = 20000 ether */\n    tag_34:\n      sload(0x00)\n      dup2\n      jump\t// out\n        /* \"src/autoria.sol\":1238:1656  function payforCAR() external payable {... */\n    tag_37:\n        /* \"src/autoria.sol\":1304:1319  StatusData.Open */\n      0x00\n        /* \"src/autoria.sol\":1290:1319  statusData != StatusData.Open */\n      0x03\n      dup2\n      gt\n      iszero\n      tag_94\n      jumpi\n      tag_95\n      tag_58\n      jump\t// in\n    tag_95:\n    tag_94:\n        /* \"src/autoria.sol\":1290:1300  statusData */\n      0x03\n      0x14\n      swap1\n      sload\n      swap1\n      0x0100\n      exp\n      swap1\n      div\n      0xff\n      and\n        /* \"src/autoria.sol\":1290:1319  statusData != StatusData.Open */\n      0x03\n      dup2\n      gt\n      iszero\n      tag_96\n      jumpi\n      tag_97\n      tag_58\n      jump\t// in\n    tag_97:\n    tag_96:\n      eq\n        /* \"src/autoria.sol\":1286:1378  if (statusData != StatusData.Open) {... */\n      tag_98\n      jumpi\n        /* \"src/autoria.sol\":1356:1366  msg.sender */\n      caller\n        /* \"src/autoria.sol\":1342:1367  InvalidStatus(msg.sender) */\n      mload(0x40)\n      0x864d3a5200000000000000000000000000000000000000000000000000000000\n      dup2\n      mstore\n      0x04\n      add\n      tag_99\n      swap2\n      swap1\n      tag_17\n      jump\t// in\n    tag_99:\n      mload(0x40)\n      dup1\n      swap2\n      sub\n      swap1\n      revert\n        /* \"src/autoria.sol\":1286:1378  if (statusData != StatusData.Open) {... */\n    tag_98:\n        /* \"src/autoria.sol\":1404:1412  carPrice */\n      sload(0x00)\n        /* \"src/autoria.sol\":1392:1401  msg.value */\n      callvalue\n        /* \"src/autoria.sol\":1392:1412  msg.value < carPrice */\n      lt\n        /* \"src/autoria.sol\":1388:1471  if (msg.value < carPrice) {... */\n      iszero\n      tag_100\n      jumpi\n        /* \"src/autoria.sol\":1449:1459  msg.sender */\n      caller\n        /* \"src/autoria.sol\":1435:1460  NotEnouhMoney(msg.sender) */\n      mload(0x40)\n      0xedea337d00000000000000000000000000000000000000000000000000000000\n      dup2\n      mstore\n      0x04\n      add\n      tag_101\n      swap2\n      swap1\n      tag_17\n      jump\t// in\n    tag_101:\n      mload(0x40)\n      dup1\n      swap2\n      sub\n      swap1\n      revert\n        /* \"src/autoria.sol\":1388:1471  if (msg.value < carPrice) {... */\n    tag_100:\n        /* \"src/autoria.sol\":1489:1499  msg.sender */\n      caller\n        /* \"src/autoria.sol\":1481:1486  buyer */\n      0x02\n      0x00\n        /* \"src/autoria.sol\":1481:1499  buyer = msg.sender */\n      0x0100\n      exp\n      dup2\n      sload\n      dup2\n      0xffffffffffffffffffffffffffffffffffffffff\n      mul\n      not\n      and\n      swap1\n      dup4\n      0xffffffffffffffffffffffffffffffffffffffff\n      and\n      mul\n      or\n      swap1\n      sstore\n      pop\n        /* \"src/autoria.sol\":1539:1546  30 days */\n      0x278d00\n        /* \"src/autoria.sol\":1521:1536  block.timestamp */\n      timestamp\n        /* \"src/autoria.sol\":1521:1546  block.timestamp + 30 days */\n      tag_102\n      swap2\n      swap1\n      tag_103\n      jump\t// in\n    tag_102:\n        /* \"src/autoria.sol\":1510:1518  deadLine */\n      0x04\n        /* \"src/autoria.sol\":1510:1546  deadLine = block.timestamp + 30 days */\n      dup2\n      swap1\n      sstore\n      pop\n        /* \"src/autoria.sol\":1570:1587  StatusData.Locked */\n      0x01\n        /* \"src/autoria.sol\":1557:1567  statusData */\n      0x03\n      0x14\n        /* \"src/autoria.sol\":1557:1587  statusData = StatusData.Locked */\n      0x0100\n      exp\n      dup2\n      sload\n      dup2\n      0xff\n      mul\n      not\n      and\n      swap1\n      dup4\n      0x03\n      dup2\n      gt\n      iszero\n      tag_104\n      jumpi\n      tag_105\n      tag_58\n      jump\t// in\n    tag_105:\n    tag_104:\n      mul\n      or\n      swap1\n      sstore\n      pop\n        /* \"src/autoria.sol\":1610:1620  msg.sender */\n      caller\n        /* \"src/autoria.sol\":1602:1649  Deposit(msg.sender, msg.value, block.timestamp) */\n      0xffffffffffffffffffffffffffffffffffffffff\n      and\n      0x90890809c654f11d6e72a28fa60149770a0d11ec6c92319d6ceb2bb0a4ea1a15\n        /* \"src/autoria.sol\":1622:1631  msg.value */\n      callvalue\n        /* \"src/autoria.sol\":1633:1648  block.timestamp */\n      timestamp\n        /* \"src/autoria.sol\":1602:1649  Deposit(msg.sender, msg.value, block.timestamp) */\n      mload(0x40)\n      tag_106\n      swap3\n      swap2\n      swap1\n      tag_107\n      jump\t// in\n    tag_106:\n      mload(0x40)\n      dup1\n      swap2\n      sub\n      swap1\n      log2\n        /* \"src/autoria.sol\":1238:1656  function payforCAR() external payable {... */\n      jump\t// out\n        /* \"src/autoria.sol\":1020:1043  uint256 public deadLine */\n    tag_40:\n      sload(0x04)\n      dup2\n      jump\t// out\n        /* \"src/autoria.sol\":644:672  StatusData public statusData */\n    tag_44:\n      0x03\n      0x14\n      swap1\n      sload\n      swap1\n      0x0100\n      exp\n      swap1\n      div\n      0xff\n      and\n      dup2\n      jump\t// out\n        /* \"src/autoria.sol\":3597:4456  function cancel() external {... */\n    tag_49:\n        /* \"src/autoria.sol\":3652:3669  StatusData.Locked */\n      0x01\n        /* \"src/autoria.sol\":3638:3669  statusData != StatusData.Locked */\n      0x03\n      dup2\n      gt\n      iszero\n      tag_109\n      jumpi\n      tag_110\n      tag_58\n      jump\t// in\n    tag_110:\n    tag_109:\n        /* \"src/autoria.sol\":3638:3648  statusData */\n      0x03\n      0x14\n      swap1\n      sload\n      swap1\n      0x0100\n      exp\n      swap1\n      div\n      0xff\n      and\n        /* \"src/autoria.sol\":3638:3669  statusData != StatusData.Locked */\n      0x03\n      dup2\n      gt\n      iszero\n      tag_111\n      jumpi\n      tag_112\n      tag_58\n      jump\t// in\n    tag_112:\n    tag_111:\n      eq\n        /* \"src/autoria.sol\":3634:3728  if (statusData != StatusData.Locked) {... */\n      tag_113\n      jumpi\n        /* \"src/autoria.sol\":3706:3716  msg.sender */\n      caller\n        /* \"src/autoria.sol\":3692:3717  InvalidStatus(msg.sender) */\n      mload(0x40)\n      0x864d3a5200000000000000000000000000000000000000000000000000000000\n      dup2\n      mstore\n      0x04\n      add\n      tag_114\n      swap2\n      swap1\n      tag_17\n      jump\t// in\n    tag_114:\n      mload(0x40)\n      dup1\n      swap2\n      sub\n      swap1\n      revert\n        /* \"src/autoria.sol\":3634:3728  if (statusData != StatusData.Locked) {... */\n    tag_113:\n        /* \"src/autoria.sol\":3756:3761  buyer */\n      0x02\n      0x00\n      swap1\n      sload\n      swap1\n      0x0100\n      exp\n      swap1\n      div\n      0xffffffffffffffffffffffffffffffffffffffff\n      and\n        /* \"src/autoria.sol\":3742:3761  msg.sender != buyer */\n      0xffffffffffffffffffffffffffffffffffffffff\n      and\n        /* \"src/autoria.sol\":3742:3752  msg.sender */\n      caller\n        /* \"src/autoria.sol\":3742:3761  msg.sender != buyer */\n      0xffffffffffffffffffffffffffffffffffffffff\n      and\n      eq\n        /* \"src/autoria.sol\":3738:3819  if (msg.sender != buyer) {... */\n      tag_115\n      jumpi\n        /* \"src/autoria.sol\":3797:3807  msg.sender */\n      caller\n        /* \"src/autoria.sol\":3784:3808  AccessDenied(msg.sender) */\n      mload(0x40)\n      0x0504a20d00000000000000000000000000000000000000000000000000000000\n      dup2\n      mstore\n      0x04\n      add\n      tag_116\n      swap2\n      swap1\n      tag_17\n      jump\t// in\n    tag_116:\n      mload(0x40)\n      dup1\n      swap2\n      sub\n      swap1\n      revert\n        /* \"src/autoria.sol\":3738:3819  if (msg.sender != buyer) {... */\n    tag_115:\n        /* \"src/autoria.sol\":3852:3860  deadLine */\n      sload(0x04)\n        /* \"src/autoria.sol\":3833:3848  block.timestamp */\n      timestamp\n        /* \"src/autoria.sol\":3833:3860  block.timestamp <= deadLine */\n      gt\n        /* \"src/autoria.sol\":3829:3919  if (block.timestamp <= deadLine) {... */\n      tag_117\n      jumpi\n        /* \"src/autoria.sol\":3897:3907  msg.sender */\n      caller\n        /* \"src/autoria.sol\":3883:3908  NotEnoughDays(msg.sender) */\n      mload(0x40)\n      0x5c15f19200000000000000000000000000000000000000000000000000000000\n      dup2\n      mstore\n      0x04\n      add\n      tag_118\n      swap2\n      swap1\n      tag_17\n      jump\t// in\n    tag_118:\n      mload(0x40)\n      dup1\n      swap2\n      sub\n      swap1\n      revert\n        /* \"src/autoria.sol\":3829:3919  if (block.timestamp <= deadLine) {... */\n    tag_117:\n        /* \"src/autoria.sol\":3957:3965  carPrice */\n      sload(0x00)\n        /* \"src/autoria.sol\":3933:3954  address(this).balance */\n      selfbalance\n        /* \"src/autoria.sol\":3933:3965  address(this).balance < carPrice */\n      lt\n        /* \"src/autoria.sol\":3929:4014  if (address(this).balance < carPrice) {... */\n      iszero\n      tag_119\n      jumpi\n        /* \"src/autoria.sol\":3988:4003  BalanceTooLow() */\n      mload(0x40)\n      0xa328167200000000000000000000000000000000000000000000000000000000\n      dup2\n      mstore\n      0x04\n      add\n      mload(0x40)\n      dup1\n      swap2\n      sub\n      swap1\n      revert\n        /* \"src/autoria.sol\":3929:4014  if (address(this).balance < carPrice) {... */\n    tag_119:\n        /* \"src/autoria.sol\":4036:4056  StatusData.Cancelled */\n      0x03\n        /* \"src/autoria.sol\":4023:4033  statusData */\n      dup1\n      0x14\n        /* \"src/autoria.sol\":4023:4056  statusData = StatusData.Cancelled */\n      0x0100\n      exp\n      dup2\n      sload\n      dup2\n      0xff\n      mul\n      not\n      and\n      swap1\n      dup4\n      0x03\n      dup2\n      gt\n      iszero\n      tag_120\n      jumpi\n      tag_121\n      tag_58\n      jump\t// in\n    tag_121:\n    tag_120:\n      mul\n      or\n      swap1\n      sstore\n      pop\n        /* \"src/autoria.sol\":4080:4085  buyer */\n      0x02\n      0x00\n      swap1\n      sload\n      swap1\n      0x0100\n      exp\n      swap1\n      div\n      0xffffffffffffffffffffffffffffffffffffffff\n      and\n        /* \"src/autoria.sol\":4071:4125  canceled(buyer, msg.sender, carPrice, block.timestamp) */\n      0xffffffffffffffffffffffffffffffffffffffff\n      and\n      0x40643115cc62c73af4ad42f60c25d6aa111fd7921c93e97b02f6ec4687a27672\n        /* \"src/autoria.sol\":4087:4097  msg.sender */\n      caller\n        /* \"src/autoria.sol\":4099:4107  carPrice */\n      sload(0x00)\n        /* \"src/autoria.sol\":4109:4124  block.timestamp */\n      timestamp\n        /* \"src/autoria.sol\":4071:4125  canceled(buyer, msg.sender, carPrice, block.timestamp) */\n      mload(0x40)\n      tag_122\n      swap4\n      swap3\n      swap2\n      swap1\n      tag_84\n      jump\t// in\n    tag_122:\n      mload(0x40)\n      dup1\n      swap2\n      sub\n      swap1\n      log2\n        /* \"src/autoria.sol\":4135:4162  uint256 balanceBeforeBuyer2 */\n      0x00\n        /* \"src/autoria.sol\":4173:4178  buyer */\n      0x02\n      0x00\n      swap1\n      sload\n      swap1\n      0x0100\n      exp\n      swap1\n      div\n      0xffffffffffffffffffffffffffffffffffffffff\n      and\n        /* \"src/autoria.sol\":4165:4187  address(buyer).balance */\n      0xffffffffffffffffffffffffffffffffffffffff\n      and\n      balance\n        /* \"src/autoria.sol\":4135:4187  uint256 balanceBeforeBuyer2 = address(buyer).balance */\n      swap1\n      pop\n        /* \"src/autoria.sol\":4198:4207  bool send */\n      0x00\n        /* \"src/autoria.sol\":4220:4225  buyer */\n      0x02\n      0x00\n      swap1\n      sload\n      swap1\n      0x0100\n      exp\n      swap1\n      div\n      0xffffffffffffffffffffffffffffffffffffffff\n      and\n        /* \"src/autoria.sol\":4212:4231  address(buyer).call */\n      0xffffffffffffffffffffffffffffffffffffffff\n      and\n        /* \"src/autoria.sol\":4239:4247  carPrice */\n      sload(0x00)\n        /* \"src/autoria.sol\":4212:4252  address(buyer).call{value: carPrice}(\"\") */\n      mload(0x40)\n      tag_123\n      swap1\n      tag_72\n      jump\t// in\n    tag_123:\n      0x00\n      mload(0x40)\n      dup1\n      dup4\n      sub\n      dup2\n      dup6\n      dup8\n      gas\n      call\n      swap3\n      pop\n      pop\n      pop\n      returndatasize\n      dup1\n      0x00\n      dup2\n      eq\n      tag_126\n      jumpi\n      mload(0x40)\n      swap2\n      pop\n      and(add(returndatasize, 0x3f), not(0x1f))\n      dup3\n      add\n      0x40\n      mstore\n      returndatasize\n      dup3\n      mstore\n      returndatasize\n      0x00\n      0x20\n      dup5\n      add\n      returndatacopy\n      jump(tag_125)\n    tag_126:\n      0x60\n      swap2\n      pop\n    tag_125:\n      pop\n        /* \"src/autoria.sol\":4197:4252  (bool send,) = address(buyer).call{value: carPrice}(\"\") */\n      pop\n      swap1\n      pop\n        /* \"src/autoria.sol\":4275:4280  false */\n      0x00\n        /* \"src/autoria.sol\":4267:4280  send == false */\n      iszero\n      iszero\n        /* \"src/autoria.sol\":4267:4271  send */\n      dup2\n        /* \"src/autoria.sol\":4267:4280  send == false */\n      iszero\n      iszero\n      sub\n        /* \"src/autoria.sol\":4263:4338  if (send == false) {... */\n      tag_127\n      jumpi\n        /* \"src/autoria.sol\":4316:4326  msg.sender */\n      caller\n        /* \"src/autoria.sol\":4303:4327  RefundFailed(msg.sender) */\n      mload(0x40)\n      0x2645bdc200000000000000000000000000000000000000000000000000000000\n      dup2\n      mstore\n      0x04\n      add\n      tag_128\n      swap2\n      swap1\n      tag_17\n      jump\t// in\n    tag_128:\n      mload(0x40)\n      dup1\n      swap2\n      sub\n      swap1\n      revert\n        /* \"src/autoria.sol\":4263:4338  if (send == false) {... */\n    tag_127:\n        /* \"src/autoria.sol\":4383:4388  buyer */\n      0x02\n      0x00\n      swap1\n      sload\n      swap1\n      0x0100\n      exp\n      swap1\n      div\n      0xffffffffffffffffffffffffffffffffffffffff\n      and\n        /* \"src/autoria.sol\":4375:4397  address(buyer).balance */\n      0xffffffffffffffffffffffffffffffffffffffff\n      and\n      balance\n        /* \"src/autoria.sol\":4352:4371  balanceBeforeBuyer2 */\n      dup3\n        /* \"src/autoria.sol\":4352:4397  balanceBeforeBuyer2 >= address(buyer).balance */\n      lt\n        /* \"src/autoria.sol\":4348:4450  if (balanceBeforeBuyer2 >= address(buyer).balance) {... */\n      tag_129\n      jumpi\n        /* \"src/autoria.sol\":4433:4438  buyer */\n      0x02\n      0x00\n      swap1\n      sload\n      swap1\n      0x0100\n      exp\n      swap1\n      div\n      0xffffffffffffffffffffffffffffffffffffffff\n      and\n        /* \"src/autoria.sol\":4420:4439  RefundFailed(buyer) */\n      mload(0x40)\n      0x2645bdc200000000000000000000000000000000000000000000000000000000\n      dup2\n      mstore\n      0x04\n      add\n      tag_130\n      swap2\n      swap1\n      tag_17\n      jump\t// in\n    tag_130:\n      mload(0x40)\n      dup1\n      swap2\n      sub\n      swap1\n      revert\n        /* \"src/autoria.sol\":4348:4450  if (balanceBeforeBuyer2 >= address(buyer).balance) {... */\n    tag_129:\n        /* \"src/autoria.sol\":3624:4456  {... */\n      pop\n      pop\n        /* \"src/autoria.sol\":3597:4456  function cancel() external {... */\n      jump\t// out\n        /* \"src/autoria.sol\":521:543  address public arbiter */\n    tag_52:\n      0x03\n      0x00\n      swap1\n      sload\n      swap1\n      0x0100\n      exp\n      swap1\n      div\n      0xffffffffffffffffffffffffffffffffffffffff\n      and\n      dup2\n      jump\t// out\n        /* \"#utility.yul\":7:133   */\n    tag_131:\n        /* \"#utility.yul\":44:51   */\n      0x00\n        /* \"#utility.yul\":84:126   */\n      0xffffffffffffffffffffffffffffffffffffffff\n        /* \"#utility.yul\":77:82   */\n      dup3\n        /* \"#utility.yul\":73:127   */\n      and\n        /* \"#utility.yul\":62:127   */\n      swap1\n      pop\n        /* \"#utility.yul\":7:133   */\n      swap2\n      swap1\n      pop\n      jump\t// out\n        /* \"#utility.yul\":139:235   */\n    tag_132:\n        /* \"#utility.yul\":176:183   */\n      0x00\n        /* \"#utility.yul\":205:229   */\n      tag_154\n        /* \"#utility.yul\":223:228   */\n      dup3\n        /* \"#utility.yul\":205:229   */\n      tag_131\n      jump\t// in\n    tag_154:\n        /* \"#utility.yul\":194:229   */\n      swap1\n      pop\n        /* \"#utility.yul\":139:235   */\n      swap2\n      swap1\n      pop\n      jump\t// out\n        /* \"#utility.yul\":241:359   */\n    tag_133:\n        /* \"#utility.yul\":328:352   */\n      tag_156\n        /* \"#utility.yul\":346:351   */\n      dup2\n        /* \"#utility.yul\":328:352   */\n      tag_132\n      jump\t// in\n    tag_156:\n        /* \"#utility.yul\":323:326   */\n      dup3\n        /* \"#utility.yul\":316:353   */\n      mstore\n        /* \"#utility.yul\":241:359   */\n      pop\n      pop\n      jump\t// out\n        /* \"#utility.yul\":365:587   */\n    tag_17:\n        /* \"#utility.yul\":458:462   */\n      0x00\n        /* \"#utility.yul\":496:498   */\n      0x20\n        /* \"#utility.yul\":485:494   */\n      dup3\n        /* \"#utility.yul\":481:499   */\n      add\n        /* \"#utility.yul\":473:499   */\n      swap1\n      pop\n        /* \"#utility.yul\":509:580   */\n      tag_158\n        /* \"#utility.yul\":577:578   */\n      0x00\n        /* \"#utility.yul\":566:575   */\n      dup4\n        /* \"#utility.yul\":562:579   */\n      add\n        /* \"#utility.yul\":553:559   */\n      dup5\n        /* \"#utility.yul\":509:580   */\n      tag_133\n      jump\t// in\n    tag_158:\n        /* \"#utility.yul\":365:587   */\n      swap3\n      swap2\n      pop\n      pop\n      jump\t// out\n        /* \"#utility.yul\":593:670   */\n    tag_134:\n        /* \"#utility.yul\":630:637   */\n      0x00\n        /* \"#utility.yul\":659:664   */\n      dup2\n        /* \"#utility.yul\":648:664   */\n      swap1\n      pop\n        /* \"#utility.yul\":593:670   */\n      swap2\n      swap1\n      pop\n      jump\t// out\n        /* \"#utility.yul\":676:794   */\n    tag_135:\n        /* \"#utility.yul\":763:787   */\n      tag_161\n        /* \"#utility.yul\":781:786   */\n      dup2\n        /* \"#utility.yul\":763:787   */\n      tag_134\n      jump\t// in\n    tag_161:\n        /* \"#utility.yul\":758:761   */\n      dup3\n        /* \"#utility.yul\":751:788   */\n      mstore\n        /* \"#utility.yul\":676:794   */\n      pop\n      pop\n      jump\t// out\n        /* \"#utility.yul\":800:1022   */\n    tag_22:\n        /* \"#utility.yul\":893:897   */\n      0x00\n        /* \"#utility.yul\":931:933   */\n      0x20\n        /* \"#utility.yul\":920:929   */\n      dup3\n        /* \"#utility.yul\":916:934   */\n      add\n        /* \"#utility.yul\":908:934   */\n      swap1\n      pop\n        /* \"#utility.yul\":944:1015   */\n      tag_163\n        /* \"#utility.yul\":1012:1013   */\n      0x00\n        /* \"#utility.yul\":1001:1010   */\n      dup4\n        /* \"#utility.yul\":997:1014   */\n      add\n        /* \"#utility.yul\":988:994   */\n      dup5\n        /* \"#utility.yul\":944:1015   */\n      tag_135\n      jump\t// in\n    tag_163:\n        /* \"#utility.yul\":800:1022   */\n      swap3\n      swap2\n      pop\n      pop\n      jump\t// out\n        /* \"#utility.yul\":1109:1226   */\n    tag_137:\n        /* \"#utility.yul\":1218:1219   */\n      0x00\n        /* \"#utility.yul\":1215:1216   */\n      0x00\n        /* \"#utility.yul\":1208:1220   */\n      revert\n        /* \"#utility.yul\":1355:1445   */\n    tag_139:\n        /* \"#utility.yul\":1389:1396   */\n      0x00\n        /* \"#utility.yul\":1432:1437   */\n      dup2\n        /* \"#utility.yul\":1425:1438   */\n      iszero\n        /* \"#utility.yul\":1418:1439   */\n      iszero\n        /* \"#utility.yul\":1407:1439   */\n      swap1\n      pop\n        /* \"#utility.yul\":1355:1445   */\n      swap2\n      swap1\n      pop\n      jump\t// out\n        /* \"#utility.yul\":1451:1567   */\n    tag_140:\n        /* \"#utility.yul\":1521:1542   */\n      tag_169\n        /* \"#utility.yul\":1536:1541   */\n      dup2\n        /* \"#utility.yul\":1521:1542   */\n      tag_139\n      jump\t// in\n    tag_169:\n        /* \"#utility.yul\":1514:1519   */\n      dup2\n        /* \"#utility.yul\":1511:1543   */\n      eq\n        /* \"#utility.yul\":1501:1561   */\n      tag_170\n      jumpi\n        /* \"#utility.yul\":1557:1558   */\n      0x00\n        /* \"#utility.yul\":1554:1555   */\n      0x00\n        /* \"#utility.yul\":1547:1559   */\n      revert\n        /* \"#utility.yul\":1501:1561   */\n    tag_170:\n        /* \"#utility.yul\":1451:1567   */\n      pop\n      jump\t// out\n        /* \"#utility.yul\":1573:1706   */\n    tag_141:\n        /* \"#utility.yul\":1616:1621   */\n      0x00\n        /* \"#utility.yul\":1654:1660   */\n      dup2\n        /* \"#utility.yul\":1641:1661   */\n      calldataload\n        /* \"#utility.yul\":1632:1661   */\n      swap1\n      pop\n        /* \"#utility.yul\":1670:1700   */\n      tag_172\n        /* \"#utility.yul\":1694:1699   */\n      dup2\n        /* \"#utility.yul\":1670:1700   */\n      tag_140\n      jump\t// in\n    tag_172:\n        /* \"#utility.yul\":1573:1706   */\n      swap3\n      swap2\n      pop\n      pop\n      jump\t// out\n        /* \"#utility.yul\":1712:2035   */\n    tag_30:\n        /* \"#utility.yul\":1768:1774   */\n      0x00\n        /* \"#utility.yul\":1817:1819   */\n      0x20\n        /* \"#utility.yul\":1805:1814   */\n      dup3\n        /* \"#utility.yul\":1796:1803   */\n      dup5\n        /* \"#utility.yul\":1792:1815   */\n      sub\n        /* \"#utility.yul\":1788:1820   */\n      slt\n        /* \"#utility.yul\":1785:1904   */\n      iszero\n      tag_174\n      jumpi\n        /* \"#utility.yul\":1823:1902   */\n      tag_175\n      tag_137\n      jump\t// in\n    tag_175:\n        /* \"#utility.yul\":1785:1904   */\n    tag_174:\n        /* \"#utility.yul\":1943:1944   */\n      0x00\n        /* \"#utility.yul\":1968:2018   */\n      tag_176\n        /* \"#utility.yul\":2010:2017   */\n      dup5\n        /* \"#utility.yul\":2001:2007   */\n      dup3\n        /* \"#utility.yul\":1990:1999   */\n      dup6\n        /* \"#utility.yul\":1986:2008   */\n      add\n        /* \"#utility.yul\":1968:2018   */\n      tag_141\n      jump\t// in\n    tag_176:\n        /* \"#utility.yul\":1958:2018   */\n      swap2\n      pop\n        /* \"#utility.yul\":1914:2028   */\n      pop\n        /* \"#utility.yul\":1712:2035   */\n      swap3\n      swap2\n      pop\n      pop\n      jump\t// out\n        /* \"#utility.yul\":2041:2221   */\n    tag_58:\n        /* \"#utility.yul\":2089:2166   */\n      0x4e487b7100000000000000000000000000000000000000000000000000000000\n        /* \"#utility.yul\":2086:2087   */\n      0x00\n        /* \"#utility.yul\":2079:2167   */\n      mstore\n        /* \"#utility.yul\":2186:2190   */\n      0x21\n        /* \"#utility.yul\":2183:2184   */\n      0x04\n        /* \"#utility.yul\":2176:2191   */\n      mstore\n        /* \"#utility.yul\":2210:2214   */\n      0x24\n        /* \"#utility.yul\":2207:2208   */\n      0x00\n        /* \"#utility.yul\":2200:2215   */\n      revert\n        /* \"#utility.yul\":2227:2345   */\n    tag_142:\n        /* \"#utility.yul\":2313:2314   */\n      0x04\n        /* \"#utility.yul\":2306:2311   */\n      dup2\n        /* \"#utility.yul\":2303:2315   */\n      lt\n        /* \"#utility.yul\":2293:2339   */\n      tag_179\n      jumpi\n        /* \"#utility.yul\":2319:2337   */\n      tag_180\n      tag_58\n      jump\t// in\n    tag_180:\n        /* \"#utility.yul\":2293:2339   */\n    tag_179:\n        /* \"#utility.yul\":2227:2345   */\n      pop\n      jump\t// out\n        /* \"#utility.yul\":2351:2488   */\n    tag_143:\n        /* \"#utility.yul\":2401:2408   */\n      0x00\n        /* \"#utility.yul\":2430:2435   */\n      dup2\n        /* \"#utility.yul\":2419:2435   */\n      swap1\n      pop\n        /* \"#utility.yul\":2436:2482   */\n      tag_182\n        /* \"#utility.yul\":2476:2481   */\n      dup3\n        /* \"#utility.yul\":2436:2482   */\n      tag_142\n      jump\t// in\n    tag_182:\n        /* \"#utility.yul\":2351:2488   */\n      swap2\n      swap1\n      pop\n      jump\t// out\n        /* \"#utility.yul\":2494:2631   */\n    tag_144:\n        /* \"#utility.yul\":2555:2564   */\n      0x00\n        /* \"#utility.yul\":2588:2625   */\n      tag_184\n        /* \"#utility.yul\":2619:2624   */\n      dup3\n        /* \"#utility.yul\":2588:2625   */\n      tag_143\n      jump\t// in\n    tag_184:\n        /* \"#utility.yul\":2575:2625   */\n      swap1\n      pop\n        /* \"#utility.yul\":2494:2631   */\n      swap2\n      swap1\n      pop\n      jump\t// out\n        /* \"#utility.yul\":2637:2790   */\n    tag_145:\n        /* \"#utility.yul\":2735:2783   */\n      tag_186\n        /* \"#utility.yul\":2777:2782   */\n      dup2\n        /* \"#utility.yul\":2735:2783   */\n      tag_144\n      jump\t// in\n    tag_186:\n        /* \"#utility.yul\":2730:2733   */\n      dup3\n        /* \"#utility.yul\":2723:2784   */\n      mstore\n        /* \"#utility.yul\":2637:2790   */\n      pop\n      pop\n      jump\t// out\n        /* \"#utility.yul\":2796:3040   */\n    tag_46:\n        /* \"#utility.yul\":2900:2904   */\n      0x00\n        /* \"#utility.yul\":2938:2940   */\n      0x20\n        /* \"#utility.yul\":2927:2936   */\n      dup3\n        /* \"#utility.yul\":2923:2941   */\n      add\n        /* \"#utility.yul\":2915:2941   */\n      swap1\n      pop\n        /* \"#utility.yul\":2951:3033   */\n      tag_188\n        /* \"#utility.yul\":3030:3031   */\n      0x00\n        /* \"#utility.yul\":3019:3028   */\n      dup4\n        /* \"#utility.yul\":3015:3032   */\n      add\n        /* \"#utility.yul\":3006:3012   */\n      dup5\n        /* \"#utility.yul\":2951:3033   */\n      tag_145\n      jump\t// in\n    tag_188:\n        /* \"#utility.yul\":2796:3040   */\n      swap3\n      swap2\n      pop\n      pop\n      jump\t// out\n        /* \"#utility.yul\":3046:3155   */\n    tag_146:\n        /* \"#utility.yul\":3127:3148   */\n      tag_190\n        /* \"#utility.yul\":3142:3147   */\n      dup2\n        /* \"#utility.yul\":3127:3148   */\n      tag_139\n      jump\t// in\n    tag_190:\n        /* \"#utility.yul\":3122:3125   */\n      dup3\n        /* \"#utility.yul\":3115:3149   */\n      mstore\n        /* \"#utility.yul\":3046:3155   */\n      pop\n      pop\n      jump\t// out\n        /* \"#utility.yul\":3161:3481   */\n    tag_70:\n        /* \"#utility.yul\":3276:3280   */\n      0x00\n        /* \"#utility.yul\":3314:3316   */\n      0x40\n        /* \"#utility.yul\":3303:3312   */\n      dup3\n        /* \"#utility.yul\":3299:3317   */\n      add\n        /* \"#utility.yul\":3291:3317   */\n      swap1\n      pop\n        /* \"#utility.yul\":3327:3392   */\n      tag_192\n        /* \"#utility.yul\":3389:3390   */\n      0x00\n        /* \"#utility.yul\":3378:3387   */\n      dup4\n        /* \"#utility.yul\":3374:3391   */\n      add\n        /* \"#utility.yul\":3365:3371   */\n      dup6\n        /* \"#utility.yul\":3327:3392   */\n      tag_146\n      jump\t// in\n    tag_192:\n        /* \"#utility.yul\":3402:3474   */\n      tag_193\n        /* \"#utility.yul\":3470:3472   */\n      0x20\n        /* \"#utility.yul\":3459:3468   */\n      dup4\n        /* \"#utility.yul\":3455:3473   */\n      add\n        /* \"#utility.yul\":3446:3452   */\n      dup5\n        /* \"#utility.yul\":3402:3474   */\n      tag_135\n      jump\t// in\n    tag_193:\n        /* \"#utility.yul\":3161:3481   */\n      swap4\n      swap3\n      pop\n      pop\n      pop\n      jump\t// out\n        /* \"#utility.yul\":3487:3634   */\n    tag_147:\n        /* \"#utility.yul\":3588:3599   */\n      0x00\n        /* \"#utility.yul\":3625:3628   */\n      dup2\n        /* \"#utility.yul\":3610:3628   */\n      swap1\n      pop\n        /* \"#utility.yul\":3487:3634   */\n      swap3\n      swap2\n      pop\n      pop\n      jump\t// out\n        /* \"#utility.yul\":3640:3754   */\n    tag_148:\n      pop\n      jump\t// out\n        /* \"#utility.yul\":3760:4158   */\n    tag_149:\n        /* \"#utility.yul\":3919:3922   */\n      0x00\n        /* \"#utility.yul\":3940:4023   */\n      tag_197\n        /* \"#utility.yul\":4021:4022   */\n      0x00\n        /* \"#utility.yul\":4016:4019   */\n      dup4\n        /* \"#utility.yul\":3940:4023   */\n      tag_147\n      jump\t// in\n    tag_197:\n        /* \"#utility.yul\":3933:4023   */\n      swap2\n      pop\n        /* \"#utility.yul\":4032:4125   */\n      tag_198\n        /* \"#utility.yul\":4121:4124   */\n      dup3\n        /* \"#utility.yul\":4032:4125   */\n      tag_148\n      jump\t// in\n    tag_198:\n        /* \"#utility.yul\":4150:4151   */\n      0x00\n        /* \"#utility.yul\":4145:4148   */\n      dup3\n        /* \"#utility.yul\":4141:4152   */\n      add\n        /* \"#utility.yul\":4134:4152   */\n      swap1\n      pop\n        /* \"#utility.yul\":3760:4158   */\n      swap2\n      swap1\n      pop\n      jump\t// out\n        /* \"#utility.yul\":4164:4543   */\n    tag_72:\n        /* \"#utility.yul\":4348:4351   */\n      0x00\n        /* \"#utility.yul\":4370:4517   */\n      tag_200\n        /* \"#utility.yul\":4513:4516   */\n      dup3\n        /* \"#utility.yul\":4370:4517   */\n      tag_149\n      jump\t// in\n    tag_200:\n        /* \"#utility.yul\":4363:4517   */\n      swap2\n      pop\n        /* \"#utility.yul\":4534:4537   */\n      dup2\n        /* \"#utility.yul\":4527:4537   */\n      swap1\n      pop\n        /* \"#utility.yul\":4164:4543   */\n      swap2\n      swap1\n      pop\n      jump\t// out\n        /* \"#utility.yul\":4549:4991   */\n    tag_84:\n        /* \"#utility.yul\":4698:4702   */\n      0x00\n        /* \"#utility.yul\":4736:4738   */\n      0x60\n        /* \"#utility.yul\":4725:4734   */\n      dup3\n        /* \"#utility.yul\":4721:4739   */\n      add\n        /* \"#utility.yul\":4713:4739   */\n      swap1\n      pop\n        /* \"#utility.yul\":4749:4820   */\n      tag_202\n        /* \"#utility.yul\":4817:4818   */\n      0x00\n        /* \"#utility.yul\":4806:4815   */\n      dup4\n        /* \"#utility.yul\":4802:4819   */\n      add\n        /* \"#utility.yul\":4793:4799   */\n      dup7\n        /* \"#utility.yul\":4749:4820   */\n      tag_133\n      jump\t// in\n    tag_202:\n        /* \"#utility.yul\":4830:4902   */\n      tag_203\n        /* \"#utility.yul\":4898:4900   */\n      0x20\n        /* \"#utility.yul\":4887:4896   */\n      dup4\n        /* \"#utility.yul\":4883:4901   */\n      add\n        /* \"#utility.yul\":4874:4880   */\n      dup6\n        /* \"#utility.yul\":4830:4902   */\n      tag_135\n      jump\t// in\n    tag_203:\n        /* \"#utility.yul\":4912:4984   */\n      tag_204\n        /* \"#utility.yul\":4980:4982   */\n      0x40\n        /* \"#utility.yul\":4969:4978   */\n      dup4\n        /* \"#utility.yul\":4965:4983   */\n      add\n        /* \"#utility.yul\":4956:4962   */\n      dup5\n        /* \"#utility.yul\":4912:4984   */\n      tag_135\n      jump\t// in\n    tag_204:\n        /* \"#utility.yul\":4549:4991   */\n      swap5\n      swap4\n      pop\n      pop\n      pop\n      pop\n      jump\t// out\n        /* \"#utility.yul\":4997:5177   */\n    tag_150:\n        /* \"#utility.yul\":5045:5122   */\n      0x4e487b7100000000000000000000000000000000000000000000000000000000\n        /* \"#utility.yul\":5042:5043   */\n      0x00\n        /* \"#utility.yul\":5035:5123   */\n      mstore\n        /* \"#utility.yul\":5142:5146   */\n      0x11\n        /* \"#utility.yul\":5139:5140   */\n      0x04\n        /* \"#utility.yul\":5132:5147   */\n      mstore\n        /* \"#utility.yul\":5166:5170   */\n      0x24\n        /* \"#utility.yul\":5163:5164   */\n      0x00\n        /* \"#utility.yul\":5156:5171   */\n      revert\n        /* \"#utility.yul\":5183:5374   */\n    tag_103:\n        /* \"#utility.yul\":5223:5226   */\n      0x00\n        /* \"#utility.yul\":5242:5262   */\n      tag_207\n        /* \"#utility.yul\":5260:5261   */\n      dup3\n        /* \"#utility.yul\":5242:5262   */\n      tag_134\n      jump\t// in\n    tag_207:\n        /* \"#utility.yul\":5237:5262   */\n      swap2\n      pop\n        /* \"#utility.yul\":5276:5296   */\n      tag_208\n        /* \"#utility.yul\":5294:5295   */\n      dup4\n        /* \"#utility.yul\":5276:5296   */\n      tag_134\n      jump\t// in\n    tag_208:\n        /* \"#utility.yul\":5271:5296   */\n      swap3\n      pop\n        /* \"#utility.yul\":5319:5320   */\n      dup3\n        /* \"#utility.yul\":5316:5317   */\n      dup3\n        /* \"#utility.yul\":5312:5321   */\n      add\n        /* \"#utility.yul\":5305:5321   */\n      swap1\n      pop\n        /* \"#utility.yul\":5340:5343   */\n      dup1\n        /* \"#utility.yul\":5337:5338   */\n      dup3\n        /* \"#utility.yul\":5334:5344   */\n      gt\n        /* \"#utility.yul\":5331:5367   */\n      iszero\n      tag_209\n      jumpi\n        /* \"#utility.yul\":5347:5365   */\n      tag_210\n      tag_150\n      jump\t// in\n    tag_210:\n        /* \"#utility.yul\":5331:5367   */\n    tag_209:\n        /* \"#utility.yul\":5183:5374   */\n      swap3\n      swap2\n      pop\n      pop\n      jump\t// out\n        /* \"#utility.yul\":5380:5712   */\n    tag_107:\n        /* \"#utility.yul\":5501:5505   */\n      0x00\n        /* \"#utility.yul\":5539:5541   */\n      0x40\n        /* \"#utility.yul\":5528:5537   */\n      dup3\n        /* \"#utility.yul\":5524:5542   */\n      add\n        /* \"#utility.yul\":5516:5542   */\n      swap1\n      pop\n        /* \"#utility.yul\":5552:5623   */\n      tag_212\n        /* \"#utility.yul\":5620:5621   */\n      0x00\n        /* \"#utility.yul\":5609:5618   */\n      dup4\n        /* \"#utility.yul\":5605:5622   */\n      add\n        /* \"#utility.yul\":5596:5602   */\n      dup6\n        /* \"#utility.yul\":5552:5623   */\n      tag_135\n      jump\t// in\n    tag_212:\n        /* \"#utility.yul\":5633:5705   */\n      tag_213\n        /* \"#utility.yul\":5701:5703   */\n      0x20\n        /* \"#utility.yul\":5690:5699   */\n      dup4\n        /* \"#utility.yul\":5686:5704   */\n      add\n        /* \"#utility.yul\":5677:5683   */\n      dup5\n        /* \"#utility.yul\":5633:5705   */\n      tag_135\n      jump\t// in\n    tag_213:\n        /* \"#utility.yul\":5380:5712   */\n      swap4\n      swap3\n      pop\n      pop\n      pop\n      jump\t// out\n\n    auxdata: 0xa26469706673582212206f81c1e16ef731d61c1e29213c1ead399feaa4ed241537c2ad830babb60e610364736f6c634300081e0033\n}\n",
				"bytecode": {
					"linkReferences": {},
					"object": "608060405269043c33c19375648000005f5534801561001c575f5ffd5b506040516112da3803806112da833981810160405281019061003e919061014d565b5f600360146101000a81548160ff021916908360038111156100635761006261018b565b5b02179055508060015f6101000a81548173ffffffffffffffffffffffffffffffffffffffff021916908373ffffffffffffffffffffffffffffffffffffffff1602179055508160035f6101000a81548173ffffffffffffffffffffffffffffffffffffffff021916908373ffffffffffffffffffffffffffffffffffffffff16021790555050506101b8565b5f5ffd5b5f73ffffffffffffffffffffffffffffffffffffffff82169050919050565b5f61011c826100f3565b9050919050565b61012c81610112565b8114610136575f5ffd5b50565b5f8151905061014781610123565b92915050565b5f5f60408385031215610163576101626100ef565b5b5f61017085828601610139565b925050602061018185828601610139565b9150509250929050565b7f4e487b71000000000000000000000000000000000000000000000000000000005f52602160045260245ffd5b611115806101c55f395ff3fe608060405260043610610090575f3560e01c8063b7f5ddaf11610058578063b7f5ddaf14610164578063bef3a0831461016e578063e6b6dd6f14610198578063ea8a1af0146101c2578063fe25e00a146101d857610090565b806308551a531461009457806312065fe0146100be5780637150d8ae146100e85780638cedfddd1461011257806395285deb1461013a575b5f5ffd5b34801561009f575f5ffd5b506100a8610202565b6040516100b59190610e72565b60405180910390f35b3480156100c9575f5ffd5b506100d2610227565b6040516100df9190610ea3565b60405180910390f35b3480156100f3575f5ffd5b506100fc610233565b6040516101099190610e72565b60405180910390f35b34801561011d575f5ffd5b5061013860048036038101906101339190610ef5565b610258565b005b348015610145575f5ffd5b5061014e61088a565b60405161015b9190610ea3565b60405180910390f35b61016c61088f565b005b348015610179575f5ffd5b50610182610a1e565b60405161018f9190610ea3565b60405180910390f35b3480156101a3575f5ffd5b506101ac610a24565b6040516101b99190610f93565b60405180910390f35b3480156101cd575f5ffd5b506101d6610a37565b005b3480156101e3575f5ffd5b506101ec610e0e565b6040516101f99190610e72565b60405180910390f35b60015f9054906101000a900473ffffffffffffffffffffffffffffffffffffffff1681565b5f5f4790508091505090565b60025f9054906101000a900473ffffffffffffffffffffffffffffffffffffffff1681565b6001600381111561026c5761026b610f20565b5b600360149054906101000a900460ff16600381111561028e5761028d610f20565b5b146102d057336040517f864d3a520000000000000000000000000000000000000000000000000000000081526004016102c79190610e72565b60405180910390fd5b60035f9054906101000a900473ffffffffffffffffffffffffffffffffffffffff1673ffffffffffffffffffffffffffffffffffffffff163373ffffffffffffffffffffffffffffffffffffffff161461036157336040517f5a9afbc40000000000000000000000000000000000000000000000000000000081526004016103589190610e72565b60405180910390fd5b5f5447101561039c576040517fa328167200000000000000000000000000000000000000000000000000000000815260040160405180910390fd5b6001151581151503610619575f60015f9054906101000a900473ffffffffffffffffffffffffffffffffffffffff1673ffffffffffffffffffffffffffffffffffffffff163190506002600360146101000a81548160ff0219169083600381111561040a57610409610f20565b5b021790555060035f9054906101000a900473ffffffffffffffffffffffffffffffffffffffff1673ffffffffffffffffffffffffffffffffffffffff167fd4424b1aebf75a24f5aa1f790a15b8381fc4d14599c53b7d89a2a0acd52dd1cd600142604051610479929190610fbb565b60405180910390a25f60015f9054906101000a900473ffffffffffffffffffffffffffffffffffffffff1673ffffffffffffffffffffffffffffffffffffffff165f546040516104c89061100f565b5f6040518083038185875af1925050503d805f8114610502576040519150601f19603f3d011682016040523d82523d5f602084013e610507565b606091505b5050905060015f9054906101000a900473ffffffffffffffffffffffffffffffffffffffff1673ffffffffffffffffffffffffffffffffffffffff163182106105a85760015f9054906101000a900473ffffffffffffffffffffffffffffffffffffffff166040517f39f1c8d900000000000000000000000000000000000000000000000000000000815260040161059f9190610e72565b60405180910390fd5b60011515811515146106125760015f9054906101000a900473ffffffffffffffffffffffffffffffffffffffff166040517f39f1c8d90000000000000000000000000000000000000000000000000000000081526004016106099190610e72565b60405180910390fd5b5050610887565b60038060146101000a81548160ff0219169083600381111561063e5761063d610f20565b5b021790555060025f9054906101000a900473ffffffffffffffffffffffffffffffffffffffff1673ffffffffffffffffffffffffffffffffffffffff167f40643115cc62c73af4ad42f60c25d6aa111fd7921c93e97b02f6ec4687a27672335f54426040516106af93929190611023565b60405180910390a25f60025f9054906101000a900473ffffffffffffffffffffffffffffffffffffffff1673ffffffffffffffffffffffffffffffffffffffff163190505f60025f9054906101000a900473ffffffffffffffffffffffffffffffffffffffff1673ffffffffffffffffffffffffffffffffffffffff165f5460405161073a9061100f565b5f6040518083038185875af1925050503d805f8114610774576040519150601f19603f3d011682016040523d82523d5f602084013e610779565b606091505b5050905060025f9054906101000a900473ffffffffffffffffffffffffffffffffffffffff1673ffffffffffffffffffffffffffffffffffffffff1631821061081a5760025f9054906101000a900473ffffffffffffffffffffffffffffffffffffffff166040517f39f1c8d90000000000000000000000000000000000000000000000000000000081526004016108119190610e72565b60405180910390fd5b60011515811515146108845760025f9054906101000a900473ffffffffffffffffffffffffffffffffffffffff166040517f39f1c8d900000000000000000000000000000000000000000000000000000000815260040161087b9190610e72565b60405180910390fd5b50505b50565b5f5481565b5f60038111156108a2576108a1610f20565b5b600360149054906101000a900460ff1660038111156108c4576108c3610f20565b5b1461090657336040517f864d3a520000000000000000000000000000000000000000000000000000000081526004016108fd9190610e72565b60405180910390fd5b5f5434101561094c57336040517fedea337d0000000000000000000000000000000000000000000000000000000081526004016109439190610e72565b60405180910390fd5b3360025f6101000a81548173ffffffffffffffffffffffffffffffffffffffff021916908373ffffffffffffffffffffffffffffffffffffffff16021790555062278d004261099b9190611085565b6004819055506001600360146101000a81548160ff021916908360038111156109c7576109c6610f20565b5b02179055503373ffffffffffffffffffffffffffffffffffffffff167f90890809c654f11d6e72a28fa60149770a0d11ec6c92319d6ceb2bb0a4ea1a153442604051610a149291906110b8565b60405180910390a2565b60045481565b600360149054906101000a900460ff1681565b60016003811115610a4b57610a4a610f20565b5b600360149054906101000a900460ff166003811115610a6d57610a6c610f20565b5b14610aaf57336040517f864d3a52000000000000000000000000000000000000000000000000000000008152600401610aa69190610e72565b60405180910390fd5b60025f9054906101000a900473ffffffffffffffffffffffffffffffffffffffff1673ffffffffffffffffffffffffffffffffffffffff163373ffffffffffffffffffffffffffffffffffffffff1614610b4057336040517f0504a20d000000000000000000000000000000000000000000000000000000008152600401610b379190610e72565b60405180910390fd5b6004544211610b8657336040517f5c15f192000000000000000000000000000000000000000000000000000000008152600401610b7d9190610e72565b60405180910390fd5b5f54471015610bc1576040517fa328167200000000000000000000000000000000000000000000000000000000815260040160405180910390fd5b60038060146101000a81548160ff02191690836003811115610be657610be5610f20565b5b021790555060025f9054906101000a900473ffffffffffffffffffffffffffffffffffffffff1673ffffffffffffffffffffffffffffffffffffffff167f40643115cc62c73af4ad42f60c25d6aa111fd7921c93e97b02f6ec4687a27672335f5442604051610c5793929190611023565b60405180910390a25f60025f9054906101000a900473ffffffffffffffffffffffffffffffffffffffff1673ffffffffffffffffffffffffffffffffffffffff163190505f60025f9054906101000a900473ffffffffffffffffffffffffffffffffffffffff1673ffffffffffffffffffffffffffffffffffffffff165f54604051610ce29061100f565b5f6040518083038185875af1925050503d805f8114610d1c576040519150601f19603f3d011682016040523d82523d5f602084013e610d21565b606091505b505090505f151581151503610d6d57336040517f2645bdc2000000000000000000000000000000000000000000000000000000008152600401610d649190610e72565b60405180910390fd5b60025f9054906101000a900473ffffffffffffffffffffffffffffffffffffffff1673ffffffffffffffffffffffffffffffffffffffff16318210610e0a5760025f9054906101000a900473ffffffffffffffffffffffffffffffffffffffff166040517f2645bdc2000000000000000000000000000000000000000000000000000000008152600401610e019190610e72565b60405180910390fd5b5050565b60035f9054906101000a900473ffffffffffffffffffffffffffffffffffffffff1681565b5f73ffffffffffffffffffffffffffffffffffffffff82169050919050565b5f610e5c82610e33565b9050919050565b610e6c81610e52565b82525050565b5f602082019050610e855f830184610e63565b92915050565b5f819050919050565b610e9d81610e8b565b82525050565b5f602082019050610eb65f830184610e94565b92915050565b5f5ffd5b5f8115159050919050565b610ed481610ec0565b8114610ede575f5ffd5b50565b5f81359050610eef81610ecb565b92915050565b5f60208284031215610f0a57610f09610ebc565b5b5f610f1784828501610ee1565b91505092915050565b7f4e487b71000000000000000000000000000000000000000000000000000000005f52602160045260245ffd5b60048110610f5e57610f5d610f20565b5b50565b5f819050610f6e82610f4d565b919050565b5f610f7d82610f61565b9050919050565b610f8d81610f73565b82525050565b5f602082019050610fa65f830184610f84565b92915050565b610fb581610ec0565b82525050565b5f604082019050610fce5f830185610fac565b610fdb6020830184610e94565b9392505050565b5f81905092915050565b50565b5f610ffa5f83610fe2565b915061100582610fec565b5f82019050919050565b5f61101982610fef565b9150819050919050565b5f6060820190506110365f830186610e63565b6110436020830185610e94565b6110506040830184610e94565b949350505050565b7f4e487b71000000000000000000000000000000000000000000000000000000005f52601160045260245ffd5b5f61108f82610e8b565b915061109a83610e8b565b92508282019050808211156110b2576110b1611058565b5b92915050565b5f6040820190506110cb5f830185610e94565b6110d86020830184610e94565b939250505056fea26469706673582212206f81c1e16ef731d61c1e29213c1ead399feaa4ed241537c2ad830babb60e610364736f6c634300081e0033",
					"opcodes": "PUSH1 0x80 PUSH1 0x40 MSTORE PUSH10 0x43C33C1937564800000 PUSH0 SSTORE CALLVALUE DUP1 ISZERO PUSH2 0x1C JUMPI PUSH0 PUSH0 REVERT JUMPDEST POP PUSH1 0x40 MLOAD PUSH2 0x12DA CODESIZE SUB DUP1 PUSH2 0x12DA DUP4 CODECOPY DUP2 DUP2 ADD PUSH1 0x40 MSTORE DUP2 ADD SWAP1 PUSH2 0x3E SWAP2 SWAP1 PUSH2 0x14D JUMP JUMPDEST PUSH0 PUSH1 0x3 PUSH1 0x14 PUSH2 0x100 EXP DUP2 SLOAD DUP2 PUSH1 0xFF MUL NOT AND SWAP1 DUP4 PUSH1 0x3 DUP2 GT ISZERO PUSH2 0x63 JUMPI PUSH2 0x62 PUSH2 0x18B JUMP JUMPDEST JUMPDEST MUL OR SWAP1 SSTORE POP DUP1 PUSH1 0x1 PUSH0 PUSH2 0x100 EXP DUP2 SLOAD DUP2 PUSH20 0xFFFFFFFFFFFFFFFFFFFFFFFFFFFFFFFFFFFFFFFF MUL NOT AND SWAP1 DUP4 PUSH20 0xFFFFFFFFFFFFFFFFFFFFFFFFFFFFFFFFFFFFFFFF AND MUL OR SWAP1 SSTORE POP DUP2 PUSH1 0x3 PUSH0 PUSH2 0x100 EXP DUP2 SLOAD DUP2 PUSH20 0xFFFFFFFFFFFFFFFFFFFFFFFFFFFFFFFFFFFFFFFF MUL NOT AND SWAP1 DUP4 PUSH20 0xFFFFFFFFFFFFFFFFFFFFFFFFFFFFFFFFFFFFFFFF AND MUL OR SWAP1 SSTORE POP POP POP PUSH2 0x1B8 JUMP JUMPDEST PUSH0 PUSH0 REVERT JUMPDEST PUSH0 PUSH20 0xFFFFFFFFFFFFFFFFFFFFFFFFFFFFFFFFFFFFFFFF DUP3 AND SWAP1 POP SWAP2 SWAP1 POP JUMP JUMPDEST PUSH0 PUSH2 0x11C DUP3 PUSH2 0xF3 JUMP JUMPDEST SWAP1 POP SWAP2 SWAP1 POP JUMP JUMPDEST PUSH2 0x12C DUP2 PUSH2 0x112 JUMP JUMPDEST DUP2 EQ PUSH2 0x136 JUMPI PUSH0 PUSH0 REVERT JUMPDEST POP JUMP JUMPDEST PUSH0 DUP2 MLOAD SWAP1 POP PUSH2 0x147 DUP2 PUSH2 0x123 JUMP JUMPDEST SWAP3 SWAP2 POP POP JUMP JUMPDEST PUSH0 PUSH0 PUSH1 0x40 DUP4 DUP6 SUB SLT ISZERO PUSH2 0x163 JUMPI PUSH2 0x162 PUSH2 0xEF JUMP JUMPDEST JUMPDEST PUSH0 PUSH2 0x170 DUP6 DUP3 DUP7 ADD PUSH2 0x139 JUMP JUMPDEST SWAP3 POP POP PUSH1 0x20 PUSH2 0x181 DUP6 DUP3 DUP7 ADD PUSH2 0x139 JUMP JUMPDEST SWAP2 POP POP SWAP3 POP SWAP3 SWAP1 POP JUMP JUMPDEST PUSH32 0x4E487B7100000000000000000000000000000000000000000000000000000000 PUSH0 MSTORE PUSH1 0x21 PUSH1 0x4 MSTORE PUSH1 0x24 PUSH0 REVERT JUMPDEST PUSH2 0x1115 DUP1 PUSH2 0x1C5 PUSH0 CODECOPY PUSH0 RETURN INVALID PUSH1 0x80 PUSH1 0x40 MSTORE PUSH1 0x4 CALLDATASIZE LT PUSH2 0x90 JUMPI PUSH0 CALLDATALOAD PUSH1 0xE0 SHR DUP1 PUSH4 0xB7F5DDAF GT PUSH2 0x58 JUMPI DUP1 PUSH4 0xB7F5DDAF EQ PUSH2 0x164 JUMPI DUP1 PUSH4 0xBEF3A083 EQ PUSH2 0x16E JUMPI DUP1 PUSH4 0xE6B6DD6F EQ PUSH2 0x198 JUMPI DUP1 PUSH4 0xEA8A1AF0 EQ PUSH2 0x1C2 JUMPI DUP1 PUSH4 0xFE25E00A EQ PUSH2 0x1D8 JUMPI PUSH2 0x90 JUMP JUMPDEST DUP1 PUSH4 0x8551A53 EQ PUSH2 0x94 JUMPI DUP1 PUSH4 0x12065FE0 EQ PUSH2 0xBE JUMPI DUP1 PUSH4 0x7150D8AE EQ PUSH2 0xE8 JUMPI DUP1 PUSH4 0x8CEDFDDD EQ PUSH2 0x112 JUMPI DUP1 PUSH4 0x95285DEB EQ PUSH2 0x13A JUMPI JUMPDEST PUSH0 PUSH0 REVERT JUMPDEST CALLVALUE DUP1 ISZERO PUSH2 0x9F JUMPI PUSH0 PUSH0 REVERT JUMPDEST POP PUSH2 0xA8 PUSH2 0x202 JUMP JUMPDEST PUSH1 0x40 MLOAD PUSH2 0xB5 SWAP2 SWAP1 PUSH2 0xE72 JUMP JUMPDEST PUSH1 0x40 MLOAD DUP1 SWAP2 SUB SWAP1 RETURN JUMPDEST CALLVALUE DUP1 ISZERO PUSH2 0xC9 JUMPI PUSH0 PUSH0 REVERT JUMPDEST POP PUSH2 0xD2 PUSH2 0x227 JUMP JUMPDEST PUSH1 0x40 MLOAD PUSH2 0xDF SWAP2 SWAP1 PUSH2 0xEA3 JUMP JUMPDEST PUSH1 0x40 MLOAD DUP1 SWAP2 SUB SWAP1 RETURN JUMPDEST CALLVALUE DUP1 ISZERO PUSH2 0xF3 JUMPI PUSH0 PUSH0 REVERT JUMPDEST POP PUSH2 0xFC PUSH2 0x233 JUMP JUMPDEST PUSH1 0x40 MLOAD PUSH2 0x109 SWAP2 SWAP1 PUSH2 0xE72 JUMP JUMPDEST PUSH1 0x40 MLOAD DUP1 SWAP2 SUB SWAP1 RETURN JUMPDEST CALLVALUE DUP1 ISZERO PUSH2 0x11D JUMPI PUSH0 PUSH0 REVERT JUMPDEST POP PUSH2 0x138 PUSH1 0x4 DUP1 CALLDATASIZE SUB DUP2 ADD SWAP1 PUSH2 0x133 SWAP2 SWAP1 PUSH2 0xEF5 JUMP JUMPDEST PUSH2 0x258 JUMP JUMPDEST STOP JUMPDEST CALLVALUE DUP1 ISZERO PUSH2 0x145 JUMPI PUSH0 PUSH0 REVERT JUMPDEST POP PUSH2 0x14E PUSH2 0x88A JUMP JUMPDEST PUSH1 0x40 MLOAD PUSH2 0x15B SWAP2 SWAP1 PUSH2 0xEA3 JUMP JUMPDEST PUSH1 0x40 MLOAD DUP1 SWAP2 SUB SWAP1 RETURN JUMPDEST PUSH2 0x16C PUSH2 0x88F JUMP JUMPDEST STOP JUMPDEST CALLVALUE DUP1 ISZERO PUSH2 0x179 JUMPI PUSH0 PUSH0 REVERT JUMPDEST POP PUSH2 0x182 PUSH2 0xA1E JUMP JUMPDEST PUSH1 0x40 MLOAD PUSH2 0x18F SWAP2 SWAP1 PUSH2 0xEA3 JUMP JUMPDEST PUSH1 0x40 MLOAD DUP1 SWAP2 SUB SWAP1 RETURN JUMPDEST CALLVALUE DUP1 ISZERO PUSH2 0x1A3 JUMPI PUSH0 PUSH0 REVERT JUMPDEST POP PUSH2 0x1AC PUSH2 0xA24 JUMP JUMPDEST PUSH1 0x40 MLOAD PUSH2 0x1B9 SWAP2 SWAP1 PUSH2 0xF93 JUMP JUMPDEST PUSH1 0x40 MLOAD DUP1 SWAP2 SUB SWAP1 RETURN JUMPDEST CALLVALUE DUP1 ISZERO PUSH2 0x1CD JUMPI PUSH0 PUSH0 REVERT JUMPDEST POP PUSH2 0x1D6 PUSH2 0xA37 JUMP JUMPDEST STOP JUMPDEST CALLVALUE DUP1 ISZERO PUSH2 0x1E3 JUMPI PUSH0 PUSH0 REVERT JUMPDEST POP PUSH2 0x1EC PUSH2 0xE0E JUMP JUMPDEST PUSH1 0x40 MLOAD PUSH2 0x1F9 SWAP2 SWAP1 PUSH2 0xE72 JUMP JUMPDEST PUSH1 0x40 MLOAD DUP1 SWAP2 SUB SWAP1 RETURN JUMPDEST PUSH1 0x1 PUSH0 SWAP1 SLOAD SWAP1 PUSH2 0x100 EXP SWAP1 DIV PUSH20 0xFFFFFFFFFFFFFFFFFFFFFFFFFFFFFFFFFFFFFFFF AND DUP2 JUMP JUMPDEST PUSH0 PUSH0 SELFBALANCE SWAP1 POP DUP1 SWAP2 POP POP SWAP1 JUMP JUMPDEST PUSH1 0x2 PUSH0 SWAP1 SLOAD SWAP1 PUSH2 0x100 EXP SWAP1 DIV PUSH20 0xFFFFFFFFFFFFFFFFFFFFFFFFFFFFFFFFFFFFFFFF AND DUP2 JUMP JUMPDEST PUSH1 0x1 PUSH1 0x3 DUP2 GT ISZERO PUSH2 0x26C JUMPI PUSH2 0x26B PUSH2 0xF20 JUMP JUMPDEST JUMPDEST PUSH1 0x3 PUSH1 0x14 SWAP1 SLOAD SWAP1 PUSH2 0x100 EXP SWAP1 DIV PUSH1 0xFF AND PUSH1 0x3 DUP2 GT ISZERO PUSH2 0x28E JUMPI PUSH2 0x28D PUSH2 0xF20 JUMP JUMPDEST JUMPDEST EQ PUSH2 0x2D0 JUMPI CALLER PUSH1 0x40 MLOAD PUSH32 0x864D3A5200000000000000000000000000000000000000000000000000000000 DUP2 MSTORE PUSH1 0x4 ADD PUSH2 0x2C7 SWAP2 SWAP1 PUSH2 0xE72 JUMP JUMPDEST PUSH1 0x40 MLOAD DUP1 SWAP2 SUB SWAP1 REVERT JUMPDEST PUSH1 0x3 PUSH0 SWAP1 SLOAD SWAP1 PUSH2 0x100 EXP SWAP1 DIV PUSH20 0xFFFFFFFFFFFFFFFFFFFFFFFFFFFFFFFFFFFFFFFF AND PUSH20 0xFFFFFFFFFFFFFFFFFFFFFFFFFFFFFFFFFFFFFFFF AND CALLER PUSH20 0xFFFFFFFFFFFFFFFFFFFFFFFFFFFFFFFFFFFFFFFF AND EQ PUSH2 0x361 JUMPI CALLER PUSH1 0x40 MLOAD PUSH32 0x5A9AFBC400000000000000000000000000000000000000000000000000000000 DUP2 MSTORE PUSH1 0x4 ADD PUSH2 0x358 SWAP2 SWAP1 PUSH2 0xE72 JUMP JUMPDEST PUSH1 0x40 MLOAD DUP1 SWAP2 SUB SWAP1 REVERT JUMPDEST PUSH0 SLOAD SELFBALANCE LT ISZERO PUSH2 0x39C JUMPI PUSH1 0x40 MLOAD PUSH32 0xA328167200000000000000000000000000000000000000000000000000000000 DUP2 MSTORE PUSH1 0x4 ADD PUSH1 0x40 MLOAD DUP1 SWAP2 SUB SWAP1 REVERT JUMPDEST PUSH1 0x1 ISZERO ISZERO DUP2 ISZERO ISZERO SUB PUSH2 0x619 JUMPI PUSH0 PUSH1 0x1 PUSH0 SWAP1 SLOAD SWAP1 PUSH2 0x100 EXP SWAP1 DIV PUSH20 0xFFFFFFFFFFFFFFFFFFFFFFFFFFFFFFFFFFFFFFFF AND PUSH20 0xFFFFFFFFFFFFFFFFFFFFFFFFFFFFFFFFFFFFFFFF AND BALANCE SWAP1 POP PUSH1 0x2 PUSH1 0x3 PUSH1 0x14 PUSH2 0x100 EXP DUP2 SLOAD DUP2 PUSH1 0xFF MUL NOT AND SWAP1 DUP4 PUSH1 0x3 DUP2 GT ISZERO PUSH2 0x40A JUMPI PUSH2 0x409 PUSH2 0xF20 JUMP JUMPDEST JUMPDEST MUL OR SWAP1 SSTORE POP PUSH1 0x3 PUSH0 SWAP1 SLOAD SWAP1 PUSH2 0x100 EXP SWAP1 DIV PUSH20 0xFFFFFFFFFFFFFFFFFFFFFFFFFFFFFFFFFFFFFFFF AND PUSH20 0xFFFFFFFFFFFFFFFFFFFFFFFFFFFFFFFFFFFFFFFF AND PUSH32 0xD4424B1AEBF75A24F5AA1F790A15B8381FC4D14599C53B7D89A2A0ACD52DD1CD PUSH1 0x1 TIMESTAMP PUSH1 0x40 MLOAD PUSH2 0x479 SWAP3 SWAP2 SWAP1 PUSH2 0xFBB JUMP JUMPDEST PUSH1 0x40 MLOAD DUP1 SWAP2 SUB SWAP1 LOG2 PUSH0 PUSH1 0x1 PUSH0 SWAP1 SLOAD SWAP1 PUSH2 0x100 EXP SWAP1 DIV PUSH20 0xFFFFFFFFFFFFFFFFFFFFFFFFFFFFFFFFFFFFFFFF AND PUSH20 0xFFFFFFFFFFFFFFFFFFFFFFFFFFFFFFFFFFFFFFFF AND PUSH0 SLOAD PUSH1 0x40 MLOAD PUSH2 0x4C8 SWAP1 PUSH2 0x100F JUMP JUMPDEST PUSH0 PUSH1 0x40 MLOAD DUP1 DUP4 SUB DUP2 DUP6 DUP8 GAS CALL SWAP3 POP POP POP RETURNDATASIZE DUP1 PUSH0 DUP2 EQ PUSH2 0x502 JUMPI PUSH1 0x40 MLOAD SWAP2 POP PUSH1 0x1F NOT PUSH1 0x3F RETURNDATASIZE ADD AND DUP3 ADD PUSH1 0x40 MSTORE RETURNDATASIZE DUP3 MSTORE RETURNDATASIZE PUSH0 PUSH1 0x20 DUP5 ADD RETURNDATACOPY PUSH2 0x507 JUMP JUMPDEST PUSH1 0x60 SWAP2 POP JUMPDEST POP POP SWAP1 POP PUSH1 0x1 PUSH0 SWAP1 SLOAD SWAP1 PUSH2 0x100 EXP SWAP1 DIV PUSH20 0xFFFFFFFFFFFFFFFFFFFFFFFFFFFFFFFFFFFFFFFF AND PUSH20 0xFFFFFFFFFFFFFFFFFFFFFFFFFFFFFFFFFFFFFFFF AND BALANCE DUP3 LT PUSH2 0x5A8 JUMPI PUSH1 0x1 PUSH0 SWAP1 SLOAD SWAP1 PUSH2 0x100 EXP SWAP1 DIV PUSH20 0xFFFFFFFFFFFFFFFFFFFFFFFFFFFFFFFFFFFFFFFF AND PUSH1 0x40 MLOAD PUSH32 0x39F1C8D900000000000000000000000000000000000000000000000000000000 DUP2 MSTORE PUSH1 0x4 ADD PUSH2 0x59F SWAP2 SWAP1 PUSH2 0xE72 JUMP JUMPDEST PUSH1 0x40 MLOAD DUP1 SWAP2 SUB SWAP1 REVERT JUMPDEST PUSH1 0x1 ISZERO ISZERO DUP2 ISZERO ISZERO EQ PUSH2 0x612 JUMPI PUSH1 0x1 PUSH0 SWAP1 SLOAD SWAP1 PUSH2 0x100 EXP SWAP1 DIV PUSH20 0xFFFFFFFFFFFFFFFFFFFFFFFFFFFFFFFFFFFFFFFF AND PUSH1 0x40 MLOAD PUSH32 0x39F1C8D900000000000000000000000000000000000000000000000000000000 DUP2 MSTORE PUSH1 0x4 ADD PUSH2 0x609 SWAP2 SWAP1 PUSH2 0xE72 JUMP JUMPDEST PUSH1 0x40 MLOAD DUP1 SWAP2 SUB SWAP1 REVERT JUMPDEST POP POP PUSH2 0x887 JUMP JUMPDEST PUSH1 0x3 DUP1 PUSH1 0x14 PUSH2 0x100 EXP DUP2 SLOAD DUP2 PUSH1 0xFF MUL NOT AND SWAP1 DUP4 PUSH1 0x3 DUP2 GT ISZERO PUSH2 0x63E JUMPI PUSH2 0x63D PUSH2 0xF20 JUMP JUMPDEST JUMPDEST MUL OR SWAP1 SSTORE POP PUSH1 0x2 PUSH0 SWAP1 SLOAD SWAP1 PUSH2 0x100 EXP SWAP1 DIV PUSH20 0xFFFFFFFFFFFFFFFFFFFFFFFFFFFFFFFFFFFFFFFF AND PUSH20 0xFFFFFFFFFFFFFFFFFFFFFFFFFFFFFFFFFFFFFFFF AND PUSH32 0x40643115CC62C73AF4AD42F60C25D6AA111FD7921C93E97B02F6EC4687A27672 CALLER PUSH0 SLOAD TIMESTAMP PUSH1 0x40 MLOAD PUSH2 0x6AF SWAP4 SWAP3 SWAP2 SWAP1 PUSH2 0x1023 JUMP JUMPDEST PUSH1 0x40 MLOAD DUP1 SWAP2 SUB SWAP1 LOG2 PUSH0 PUSH1 0x2 PUSH0 SWAP1 SLOAD SWAP1 PUSH2 0x100 EXP SWAP1 DIV PUSH20 0xFFFFFFFFFFFFFFFFFFFFFFFFFFFFFFFFFFFFFFFF AND PUSH20 0xFFFFFFFFFFFFFFFFFFFFFFFFFFFFFFFFFFFFFFFF AND BALANCE SWAP1 POP PUSH0 PUSH1 0x2 PUSH0 SWAP1 SLOAD SWAP1 PUSH2 0x100 EXP SWAP1 DIV PUSH20 0xFFFFFFFFFFFFFFFFFFFFFFFFFFFFFFFFFFFFFFFF AND PUSH20 0xFFFFFFFFFFFFFFFFFFFFFFFFFFFFFFFFFFFFFFFF AND PUSH0 SLOAD PUSH1 0x40 MLOAD PUSH2 0x73A SWAP1 PUSH2 0x100F JUMP JUMPDEST PUSH0 PUSH1 0x40 MLOAD DUP1 DUP4 SUB DUP2 DUP6 DUP8 GAS CALL SWAP3 POP POP POP RETURNDATASIZE DUP1 PUSH0 DUP2 EQ PUSH2 0x774 JUMPI PUSH1 0x40 MLOAD SWAP2 POP PUSH1 0x1F NOT PUSH1 0x3F RETURNDATASIZE ADD AND DUP3 ADD PUSH1 0x40 MSTORE RETURNDATASIZE DUP3 MSTORE RETURNDATASIZE PUSH0 PUSH1 0x20 DUP5 ADD RETURNDATACOPY PUSH2 0x779 JUMP JUMPDEST PUSH1 0x60 SWAP2 POP JUMPDEST POP POP SWAP1 POP PUSH1 0x2 PUSH0 SWAP1 SLOAD SWAP1 PUSH2 0x100 EXP SWAP1 DIV PUSH20 0xFFFFFFFFFFFFFFFFFFFFFFFFFFFFFFFFFFFFFFFF AND PUSH20 0xFFFFFFFFFFFFFFFFFFFFFFFFFFFFFFFFFFFFFFFF AND BALANCE DUP3 LT PUSH2 0x81A JUMPI PUSH1 0x2 PUSH0 SWAP1 SLOAD SWAP1 PUSH2 0x100 EXP SWAP1 DIV PUSH20 0xFFFFFFFFFFFFFFFFFFFFFFFFFFFFFFFFFFFFFFFF AND PUSH1 0x40 MLOAD PUSH32 0x39F1C8D900000000000000000000000000000000000000000000000000000000 DUP2 MSTORE PUSH1 0x4 ADD PUSH2 0x811 SWAP2 SWAP1 PUSH2 0xE72 JUMP JUMPDEST PUSH1 0x40 MLOAD DUP1 SWAP2 SUB SWAP1 REVERT JUMPDEST PUSH1 0x1 ISZERO ISZERO DUP2 ISZERO ISZERO EQ PUSH2 0x884 JUMPI PUSH1 0x2 PUSH0 SWAP1 SLOAD SWAP1 PUSH2 0x100 EXP SWAP1 DIV PUSH20 0xFFFFFFFFFFFFFFFFFFFFFFFFFFFFFFFFFFFFFFFF AND PUSH1 0x40 MLOAD PUSH32 0x39F1C8D900000000000000000000000000000000000000000000000000000000 DUP2 MSTORE PUSH1 0x4 ADD PUSH2 0x87B SWAP2 SWAP1 PUSH2 0xE72 JUMP JUMPDEST PUSH1 0x40 MLOAD DUP1 SWAP2 SUB SWAP1 REVERT JUMPDEST POP POP JUMPDEST POP JUMP JUMPDEST PUSH0 SLOAD DUP2 JUMP JUMPDEST PUSH0 PUSH1 0x3 DUP2 GT ISZERO PUSH2 0x8A2 JUMPI PUSH2 0x8A1 PUSH2 0xF20 JUMP JUMPDEST JUMPDEST PUSH1 0x3 PUSH1 0x14 SWAP1 SLOAD SWAP1 PUSH2 0x100 EXP SWAP1 DIV PUSH1 0xFF AND PUSH1 0x3 DUP2 GT ISZERO PUSH2 0x8C4 JUMPI PUSH2 0x8C3 PUSH2 0xF20 JUMP JUMPDEST JUMPDEST EQ PUSH2 0x906 JUMPI CALLER PUSH1 0x40 MLOAD PUSH32 0x864D3A5200000000000000000000000000000000000000000000000000000000 DUP2 MSTORE PUSH1 0x4 ADD PUSH2 0x8FD SWAP2 SWAP1 PUSH2 0xE72 JUMP JUMPDEST PUSH1 0x40 MLOAD DUP1 SWAP2 SUB SWAP1 REVERT JUMPDEST PUSH0 SLOAD CALLVALUE LT ISZERO PUSH2 0x94C JUMPI CALLER PUSH1 0x40 MLOAD PUSH32 0xEDEA337D00000000000000000000000000000000000000000000000000000000 DUP2 MSTORE PUSH1 0x4 ADD PUSH2 0x943 SWAP2 SWAP1 PUSH2 0xE72 JUMP JUMPDEST PUSH1 0x40 MLOAD DUP1 SWAP2 SUB SWAP1 REVERT JUMPDEST CALLER PUSH1 0x2 PUSH0 PUSH2 0x100 EXP DUP2 SLOAD DUP2 PUSH20 0xFFFFFFFFFFFFFFFFFFFFFFFFFFFFFFFFFFFFFFFF MUL NOT AND SWAP1 DUP4 PUSH20 0xFFFFFFFFFFFFFFFFFFFFFFFFFFFFFFFFFFFFFFFF AND MUL OR SWAP1 SSTORE POP PUSH3 0x278D00 TIMESTAMP PUSH2 0x99B SWAP2 SWAP1 PUSH2 0x1085 JUMP JUMPDEST PUSH1 0x4 DUP2 SWAP1 SSTORE POP PUSH1 0x1 PUSH1 0x3 PUSH1 0x14 PUSH2 0x100 EXP DUP2 SLOAD DUP2 PUSH1 0xFF MUL NOT AND SWAP1 DUP4 PUSH1 0x3 DUP2 GT ISZERO PUSH2 0x9C7 JUMPI PUSH2 0x9C6 PUSH2 0xF20 JUMP JUMPDEST JUMPDEST MUL OR SWAP1 SSTORE POP CALLER PUSH20 0xFFFFFFFFFFFFFFFFFFFFFFFFFFFFFFFFFFFFFFFF AND PUSH32 0x90890809C654F11D6E72A28FA60149770A0D11EC6C92319D6CEB2BB0A4EA1A15 CALLVALUE TIMESTAMP PUSH1 0x40 MLOAD PUSH2 0xA14 SWAP3 SWAP2 SWAP1 PUSH2 0x10B8 JUMP JUMPDEST PUSH1 0x40 MLOAD DUP1 SWAP2 SUB SWAP1 LOG2 JUMP JUMPDEST PUSH1 0x4 SLOAD DUP2 JUMP JUMPDEST PUSH1 0x3 PUSH1 0x14 SWAP1 SLOAD SWAP1 PUSH2 0x100 EXP SWAP1 DIV PUSH1 0xFF AND DUP2 JUMP JUMPDEST PUSH1 0x1 PUSH1 0x3 DUP2 GT ISZERO PUSH2 0xA4B JUMPI PUSH2 0xA4A PUSH2 0xF20 JUMP JUMPDEST JUMPDEST PUSH1 0x3 PUSH1 0x14 SWAP1 SLOAD SWAP1 PUSH2 0x100 EXP SWAP1 DIV PUSH1 0xFF AND PUSH1 0x3 DUP2 GT ISZERO PUSH2 0xA6D JUMPI PUSH2 0xA6C PUSH2 0xF20 JUMP JUMPDEST JUMPDEST EQ PUSH2 0xAAF JUMPI CALLER PUSH1 0x40 MLOAD PUSH32 0x864D3A5200000000000000000000000000000000000000000000000000000000 DUP2 MSTORE PUSH1 0x4 ADD PUSH2 0xAA6 SWAP2 SWAP1 PUSH2 0xE72 JUMP JUMPDEST PUSH1 0x40 MLOAD DUP1 SWAP2 SUB SWAP1 REVERT JUMPDEST PUSH1 0x2 PUSH0 SWAP1 SLOAD SWAP1 PUSH2 0x100 EXP SWAP1 DIV PUSH20 0xFFFFFFFFFFFFFFFFFFFFFFFFFFFFFFFFFFFFFFFF AND PUSH20 0xFFFFFFFFFFFFFFFFFFFFFFFFFFFFFFFFFFFFFFFF AND CALLER PUSH20 0xFFFFFFFFFFFFFFFFFFFFFFFFFFFFFFFFFFFFFFFF AND EQ PUSH2 0xB40 JUMPI CALLER PUSH1 0x40 MLOAD PUSH32 0x504A20D00000000000000000000000000000000000000000000000000000000 DUP2 MSTORE PUSH1 0x4 ADD PUSH2 0xB37 SWAP2 SWAP1 PUSH2 0xE72 JUMP JUMPDEST PUSH1 0x40 MLOAD DUP1 SWAP2 SUB SWAP1 REVERT JUMPDEST PUSH1 0x4 SLOAD TIMESTAMP GT PUSH2 0xB86 JUMPI CALLER PUSH1 0x40 MLOAD PUSH32 0x5C15F19200000000000000000000000000000000000000000000000000000000 DUP2 MSTORE PUSH1 0x4 ADD PUSH2 0xB7D SWAP2 SWAP1 PUSH2 0xE72 JUMP JUMPDEST PUSH1 0x40 MLOAD DUP1 SWAP2 SUB SWAP1 REVERT JUMPDEST PUSH0 SLOAD SELFBALANCE LT ISZERO PUSH2 0xBC1 JUMPI PUSH1 0x40 MLOAD PUSH32 0xA328167200000000000000000000000000000000000000000000000000000000 DUP2 MSTORE PUSH1 0x4 ADD PUSH1 0x40 MLOAD DUP1 SWAP2 SUB SWAP1 REVERT JUMPDEST PUSH1 0x3 DUP1 PUSH1 0x14 PUSH2 0x100 EXP DUP2 SLOAD DUP2 PUSH1 0xFF MUL NOT AND SWAP1 DUP4 PUSH1 0x3 DUP2 GT ISZERO PUSH2 0xBE6 JUMPI PUSH2 0xBE5 PUSH2 0xF20 JUMP JUMPDEST JUMPDEST MUL OR SWAP1 SSTORE POP PUSH1 0x2 PUSH0 SWAP1 SLOAD SWAP1 PUSH2 0x100 EXP SWAP1 DIV PUSH20 0xFFFFFFFFFFFFFFFFFFFFFFFFFFFFFFFFFFFFFFFF AND PUSH20 0xFFFFFFFFFFFFFFFFFFFFFFFFFFFFFFFFFFFFFFFF AND PUSH32 0x40643115CC62C73AF4AD42F60C25D6AA111FD7921C93E97B02F6EC4687A27672 CALLER PUSH0 SLOAD TIMESTAMP PUSH1 0x40 MLOAD PUSH2 0xC57 SWAP4 SWAP3 SWAP2 SWAP1 PUSH2 0x1023 JUMP JUMPDEST PUSH1 0x40 MLOAD DUP1 SWAP2 SUB SWAP1 LOG2 PUSH0 PUSH1 0x2 PUSH0 SWAP1 SLOAD SWAP1 PUSH2 0x100 EXP SWAP1 DIV PUSH20 0xFFFFFFFFFFFFFFFFFFFFFFFFFFFFFFFFFFFFFFFF AND PUSH20 0xFFFFFFFFFFFFFFFFFFFFFFFFFFFFFFFFFFFFFFFF AND BALANCE SWAP1 POP PUSH0 PUSH1 0x2 PUSH0 SWAP1 SLOAD SWAP1 PUSH2 0x100 EXP SWAP1 DIV PUSH20 0xFFFFFFFFFFFFFFFFFFFFFFFFFFFFFFFFFFFFFFFF AND PUSH20 0xFFFFFFFFFFFFFFFFFFFFFFFFFFFFFFFFFFFFFFFF AND PUSH0 SLOAD PUSH1 0x40 MLOAD PUSH2 0xCE2 SWAP1 PUSH2 0x100F JUMP JUMPDEST PUSH0 PUSH1 0x40 MLOAD DUP1 DUP4 SUB DUP2 DUP6 DUP8 GAS CALL SWAP3 POP POP POP RETURNDATASIZE DUP1 PUSH0 DUP2 EQ PUSH2 0xD1C JUMPI PUSH1 0x40 MLOAD SWAP2 POP PUSH1 0x1F NOT PUSH1 0x3F RETURNDATASIZE ADD AND DUP3 ADD PUSH1 0x40 MSTORE RETURNDATASIZE DUP3 MSTORE RETURNDATASIZE PUSH0 PUSH1 0x20 DUP5 ADD RETURNDATACOPY PUSH2 0xD21 JUMP JUMPDEST PUSH1 0x60 SWAP2 POP JUMPDEST POP POP SWAP1 POP PUSH0 ISZERO ISZERO DUP2 ISZERO ISZERO SUB PUSH2 0xD6D JUMPI CALLER PUSH1 0x40 MLOAD PUSH32 0x2645BDC200000000000000000000000000000000000000000000000000000000 DUP2 MSTORE PUSH1 0x4 ADD PUSH2 0xD64 SWAP2 SWAP1 PUSH2 0xE72 JUMP JUMPDEST PUSH1 0x40 MLOAD DUP1 SWAP2 SUB SWAP1 REVERT JUMPDEST PUSH1 0x2 PUSH0 SWAP1 SLOAD SWAP1 PUSH2 0x100 EXP SWAP1 DIV PUSH20 0xFFFFFFFFFFFFFFFFFFFFFFFFFFFFFFFFFFFFFFFF AND PUSH20 0xFFFFFFFFFFFFFFFFFFFFFFFFFFFFFFFFFFFFFFFF AND BALANCE DUP3 LT PUSH2 0xE0A JUMPI PUSH1 0x2 PUSH0 SWAP1 SLOAD SWAP1 PUSH2 0x100 EXP SWAP1 DIV PUSH20 0xFFFFFFFFFFFFFFFFFFFFFFFFFFFFFFFFFFFFFFFF AND PUSH1 0x40 MLOAD PUSH32 0x2645BDC200000000000000000000000000000000000000000000000000000000 DUP2 MSTORE PUSH1 0x4 ADD PUSH2 0xE01 SWAP2 SWAP1 PUSH2 0xE72 JUMP JUMPDEST PUSH1 0x40 MLOAD DUP1 SWAP2 SUB SWAP1 REVERT JUMPDEST POP POP JUMP JUMPDEST PUSH1 0x3 PUSH0 SWAP1 SLOAD SWAP1 PUSH2 0x100 EXP SWAP1 DIV PUSH20 0xFFFFFFFFFFFFFFFFFFFFFFFFFFFFFFFFFFFFFFFF AND DUP2 JUMP JUMPDEST PUSH0 PUSH20 0xFFFFFFFFFFFFFFFFFFFFFFFFFFFFFFFFFFFFFFFF DUP3 AND SWAP1 POP SWAP2 SWAP1 POP JUMP JUMPDEST PUSH0 PUSH2 0xE5C DUP3 PUSH2 0xE33 JUMP JUMPDEST SWAP1 POP SWAP2 SWAP1 POP JUMP JUMPDEST PUSH2 0xE6C DUP2 PUSH2 0xE52 JUMP JUMPDEST DUP3 MSTORE POP POP JUMP JUMPDEST PUSH0 PUSH1 0x20 DUP3 ADD SWAP1 POP PUSH2 0xE85 PUSH0 DUP4 ADD DUP5 PUSH2 0xE63 JUMP JUMPDEST SWAP3 SWAP2 POP POP JUMP JUMPDEST PUSH0 DUP2 SWAP1 POP SWAP2 SWAP1 POP JUMP JUMPDEST PUSH2 0xE9D DUP2 PUSH2 0xE8B JUMP JUMPDEST DUP3 MSTORE POP POP JUMP JUMPDEST PUSH0 PUSH1 0x20 DUP3 ADD SWAP1 POP PUSH2 0xEB6 PUSH0 DUP4 ADD DUP5 PUSH2 0xE94 JUMP JUMPDEST SWAP3 SWAP2 POP POP JUMP JUMPDEST PUSH0 PUSH0 REVERT JUMPDEST PUSH0 DUP2 ISZERO ISZERO SWAP1 POP SWAP2 SWAP1 POP JUMP JUMPDEST PUSH2 0xED4 DUP2 PUSH2 0xEC0 JUMP JUMPDEST DUP2 EQ PUSH2 0xEDE JUMPI PUSH0 PUSH0 REVERT JUMPDEST POP JUMP JUMPDEST PUSH0 DUP2 CALLDATALOAD SWAP1 POP PUSH2 0xEEF DUP2 PUSH2 0xECB JUMP JUMPDEST SWAP3 SWAP2 POP POP JUMP JUMPDEST PUSH0 PUSH1 0x20 DUP3 DUP5 SUB SLT ISZERO PUSH2 0xF0A JUMPI PUSH2 0xF09 PUSH2 0xEBC JUMP JUMPDEST JUMPDEST PUSH0 PUSH2 0xF17 DUP5 DUP3 DUP6 ADD PUSH2 0xEE1 JUMP JUMPDEST SWAP2 POP POP SWAP3 SWAP2 POP POP JUMP JUMPDEST PUSH32 0x4E487B7100000000000000000000000000000000000000000000000000000000 PUSH0 MSTORE PUSH1 0x21 PUSH1 0x4 MSTORE PUSH1 0x24 PUSH0 REVERT JUMPDEST PUSH1 0x4 DUP2 LT PUSH2 0xF5E JUMPI PUSH2 0xF5D PUSH2 0xF20 JUMP JUMPDEST JUMPDEST POP JUMP JUMPDEST PUSH0 DUP2 SWAP1 POP PUSH2 0xF6E DUP3 PUSH2 0xF4D JUMP JUMPDEST SWAP2 SWAP1 POP JUMP JUMPDEST PUSH0 PUSH2 0xF7D DUP3 PUSH2 0xF61 JUMP JUMPDEST SWAP1 POP SWAP2 SWAP1 POP JUMP JUMPDEST PUSH2 0xF8D DUP2 PUSH2 0xF73 JUMP JUMPDEST DUP3 MSTORE POP POP JUMP JUMPDEST PUSH0 PUSH1 0x20 DUP3 ADD SWAP1 POP PUSH2 0xFA6 PUSH0 DUP4 ADD DUP5 PUSH2 0xF84 JUMP JUMPDEST SWAP3 SWAP2 POP POP JUMP JUMPDEST PUSH2 0xFB5 DUP2 PUSH2 0xEC0 JUMP JUMPDEST DUP3 MSTORE POP POP JUMP JUMPDEST PUSH0 PUSH1 0x40 DUP3 ADD SWAP1 POP PUSH2 0xFCE PUSH0 DUP4 ADD DUP6 PUSH2 0xFAC JUMP JUMPDEST PUSH2 0xFDB PUSH1 0x20 DUP4 ADD DUP5 PUSH2 0xE94 JUMP JUMPDEST SWAP4 SWAP3 POP POP POP JUMP JUMPDEST PUSH0 DUP2 SWAP1 POP SWAP3 SWAP2 POP POP JUMP JUMPDEST POP JUMP JUMPDEST PUSH0 PUSH2 0xFFA PUSH0 DUP4 PUSH2 0xFE2 JUMP JUMPDEST SWAP2 POP PUSH2 0x1005 DUP3 PUSH2 0xFEC JUMP JUMPDEST PUSH0 DUP3 ADD SWAP1 POP SWAP2 SWAP1 POP JUMP JUMPDEST PUSH0 PUSH2 0x1019 DUP3 PUSH2 0xFEF JUMP JUMPDEST SWAP2 POP DUP2 SWAP1 POP SWAP2 SWAP1 POP JUMP JUMPDEST PUSH0 PUSH1 0x60 DUP3 ADD SWAP1 POP PUSH2 0x1036 PUSH0 DUP4 ADD DUP7 PUSH2 0xE63 JUMP JUMPDEST PUSH2 0x1043 PUSH1 0x20 DUP4 ADD DUP6 PUSH2 0xE94 JUMP JUMPDEST PUSH2 0x1050 PUSH1 0x40 DUP4 ADD DUP5 PUSH2 0xE94 JUMP JUMPDEST SWAP5 SWAP4 POP POP POP POP JUMP JUMPDEST PUSH32 0x4E487B7100000000000000000000000000000000000000000000000000000000 PUSH0 MSTORE PUSH1 0x11 PUSH1 0x4 MSTORE PUSH1 0x24 PUSH0 REVERT JUMPDEST PUSH0 PUSH2 0x108F DUP3 PUSH2 0xE8B JUMP JUMPDEST SWAP2 POP PUSH2 0x109A DUP4 PUSH2 0xE8B JUMP JUMPDEST SWAP3 POP DUP3 DUP3 ADD SWAP1 POP DUP1 DUP3 GT ISZERO PUSH2 0x10B2 JUMPI PUSH2 0x10B1 PUSH2 0x1058 JUMP JUMPDEST JUMPDEST SWAP3 SWAP2 POP POP JUMP JUMPDEST PUSH0 PUSH1 0x40 DUP3 ADD SWAP1 POP PUSH2 0x10CB PUSH0 DUP4 ADD DUP6 PUSH2 0xE94 JUMP JUMPDEST PUSH2 0x10D8 PUSH1 0x20 DUP4 ADD DUP5 PUSH2 0xE94 JUMP JUMPDEST SWAP4 SWAP3 POP POP POP JUMP INVALID LOG2 PUSH5 0x6970667358 0x22 SLT KECCAK256 PUSH16 0x81C1E16EF731D61C1E29213C1EAD399F 0xEA LOG4 0xED 0x24 ISZERO CALLDATACOPY 0xC2 0xAD DUP4 SIGNEXTEND 0xAB 0xB6 0xE PUSH2 0x364 PUSH20 0x6F6C634300081E00330000000000000000000000 "
				},
				"gasEstimates": {
					"creation": {
						"codeDepositCost": "874600",
						"executionCost": "infinite",
						"totalCost": "infinite"
					},
					"external": {
						"approved(bool)": "infinite",
						"arbiter()": "2596",
						"buyer()": "2553",
						"cancel()": "infinite",
						"carPrice()": "2513",
						"deadLine()": "2447",
						"getBalance()": "369",
						"payforCAR()": "infinite",
						"seller()": "2509",
						"statusData()": "2649"
					}
				},
				"methodIdentifiers": {
					"approved(bool)": "8cedfddd",
					"arbiter()": "fe25e00a",
					"buyer()": "7150d8ae",
					"cancel()": "ea8a1af0",
					"carPrice()": "95285deb",
					"deadLine()": "bef3a083",
					"getBalance()": "12065fe0",
					"payforCAR()": "b7f5ddaf",
					"seller()": "08551a53",
					"statusData()": "e6b6dd6f"
				}
			},
			"storageLayout": {
				"storage": [
					{
						"astId": 36,
						"contract": "src/autoria.sol:autoria",
						"label": "carPrice",
						"offset": 0,
						"slot": "0",
						"type": "t_uint256"
					},
					{
						"astId": 38,
						"contract": "src/autoria.sol:autoria",
						"label": "seller",
						"offset": 0,
						"slot": "1",
						"type": "t_address"
					},
					{
						"astId": 40,
						"contract": "src/autoria.sol:autoria",
						"label": "buyer",
						"offset": 0,
						"slot": "2",
						"type": "t_address"
					},
					{
						"astId": 42,
						"contract": "src/autoria.sol:autoria",
						"label": "arbiter",
						"offset": 0,
						"slot": "3",
						"type": "t_address"
					},
					{
						"astId": 50,
						"contract": "src/autoria.sol:autoria",
						"label": "statusData",
						"offset": 20,
						"slot": "3",
						"type": "t_enum(StatusData)47"
					},
					{
						"astId": 78,
						"contract": "src/autoria.sol:autoria",
						"label": "deadLine",
						"offset": 0,
						"slot": "4",
						"type": "t_uint256"
					}
				],
				"types": {
					"t_address": {
						"encoding": "inplace",
						"label": "address",
						"numberOfBytes": "20"
					},
					"t_enum(StatusData)47": {
						"encoding": "inplace",
						"label": "enum autoria.StatusData",
						"numberOfBytes": "1"
					},
					"t_uint256": {
						"encoding": "inplace",
						"label": "uint256",
						"numberOfBytes": "32"
					}
				}
			},
			"userdoc": {
				"kind": "user",
				"methods": {},
				"version": 1
			}
		}
	}
}